:020000040800F2
:10000000B82300209D010008C15F0008A95700081F
:10001000BD5F0008F5080008C17700080000000077
:100020000000000000000000000000000D6D00084E
:100030008111000800000000C55F0008A96E0008DB
:10004000B7010008B7010008B7010008B7010008B0
:10005000B7010008B7010008B7010008B7010008A0
:10006000B7010008B7010008B5150008B70100087E
:100070007D0C0008B7010008890C0008950C0008E9
:10008000A10C0008AD0C0008B7010008B70100087A
:10009000B7010008B7010008B7010008B701000860
:1000A000796F0008B7010008B7010008B701000820
:1000B000996F0008B7010008B7010008B7010008F0
:1000C000B7010008B7010008B7010008B701000830
:1000D000216A0008B701000899770008A577000891
:1000E000B7010008B7010008B7010008B701000810
:1000F000B7010008B7010008B7010008B701000800
:10010000B70100080D610008B7010008B701000839
:10011000B7010008B7010008A56F0008B701000883
:10012000B7010008B7010008B7010008B90C0008C2
:10013000B7010008B7010008B7010008B7010008BF
:10014000B7010008B7010008B7010008B7010008AF
:10015000B7010008B7010008B7010008B70100089F
:10016000B7010008B7010008B7010008B70100088F
:10017000B7010008B7010008B7010008000000003F
:10018000B7010008B7010008DFF80CD000F016FB3B
:1001900000480047557A0008B823002006488047E9
:1001A00006480047FEE7FEE7FEE7FEE7FEE7FEE75C
:1001B000FEE7FEE7FEE7FEE7656F0008890100083D
:1001C0002DE9F05F0546002092469B46884606468C
:1001D000814640241BE0284641464746224600F01F
:1001E000CEF953465A46C01A914110D311461846CB
:1001F000224600F0B5F92D1A67EB01084F4622465A
:100200000120002100F0ACF917EB00094E41201E3F
:10021000A4F10104DFDC484631462A464346BDE8E6
:10022000F09F40EA01039B0703D009E008C9121FB1
:1002300008C0042AFAD203E011F8013B00F8013BA0
:10024000521EF9D27047D2B201E000F8012B491ECC
:10025000FBD270470022F6E710B513460A46044663
:100260001946FFF7F0FF204610BD30B504460020C8
:10027000034600E05B1C934203D2E05CCD5C401B74
:10028000F8D030BD2DE9FE4F804681EA0300C00F53
:100290000C46009021F0004123F00045B8EB02002D
:1002A000A94105D24046214690461C460B460246CF
:1002B00023F00040104347D0270DC7F30A00C3F3D3
:1002C0000A510290401A019040286BDAC3F31300E0
:1002D00040F4801B0098924620B10023D2EB030A21
:1002E00063EB0B0B01985946C0F14002504600F0F9
:1002F00037F906460D4650465946019A00F04FF927
:1003000010EB08006141002487EA115284EAE77388
:100310001A4340D0009A62B3019A012A4FEA075269
:1003200015DC001B61EB02014FF0004202EA0752AC
:10033000CDE90042001C41F5801132462B4600F009
:100340004FF903B0BDE8F08F40462146F9E7001BA6
:1003500061EB0201001C41F5801300185B4120187D
:10036000A2F5001747EB030140EAD570B6196D41BD
:1003700011E06D084FEA360645EAC0754FEA0752AC
:10038000001B61EB0201001C41F5801149084FEA96
:1003900030000019514132462B4603B0BDE8F04F02
:1003A00000F00FB90098012240000023D0EB0202B8
:1003B00063EBE073009821464FEAE074B8EB00006D
:1003C00061EB0401E9E783F000435BE781F0004162
:1003D00058E72DE9FE4F81EA030404F0004421F0C0
:1003E000004100944FF0000B23F0004350EA010459
:1003F0005ED052EA03045BD0C3F30A54C1F30A553A
:100400002C44A4F2F3340194A0FB0254C1F3130171
:1004100041F48011C3F3130343F4801301FB02443E
:1004200000FB034E840A970A44EA815447EA835743
:10043000A4FB076802958D0A05FB07854FEA932CFC
:1004400004FB0C542705029D4FEA065847EA16376D
:10045000B5EB08056EEB070C870E920E47EA811785
:1004600042EA8312A7FB0201B6EB0B0164EB000426
:100470002B0D43EA0C335E1844EB1C50DA46514610
:10048000E7FB0201C5F313044FEA0B3343EA1453AD
:100490004FEA0432019C43EA0603A4F10C040294DF
:1004A000009CCDE900B400F09BF803B0BDE8F08FEC
:1004B00000200146F9E70EB540F2334102910021D8
:1004C000CDE900110A460B4600F08AF803B000BDE2
:1004D00070B5C1F30A5201F000450024C1F31301C5
:1004E00040F2FF3341F480119A4201DA002070BDDE
:1004F00040F233439A42A2F2334203DC524200F00C
:100500003EF800E090402C43F1D0404270BD00F036
:10051000004230F000400AD0C10D01F56071C0F317
:10052000160042EA0151C2084007114370470020FB
:100530000146704730B50B460146002020220124B9
:1005400009E021FA02F59D4205D303FA02F5491BA1
:1005500004FA02F52844151EA2F10102F1DC30BDB7
:10056000202A04DB203A00FA02F100207047914073
:10057000C2F1200320FA03F3194390407047202A68
:1005800004DB203A21FA02F00021704721FA02F33D
:10059000D040C2F120029140084319467047202AFA
:1005A00006DBCB17203A41FA02F043EAE07306E09B
:1005B00041FA02F3D040C2F12002914008431946AB
:1005C000704710B5141E73F1000408DA401C41F1A5
:1005D000000192185B411A4301D120F0010010BDC7
:1005E0002DE9F04D92469B4611B1B1FA81F202E03D
:1005F000B0FA80F220329046FFF7B2FF04460F4671
:1006000040EA0A0041EA0B0153465A46084313D018
:10061000114653EA010019D0C8F140025046FFF7D5
:10062000AEFF05460E46504659464246FFF798FF34
:10063000084305D0012004E020463946BDE8F08D8E
:100640000020054346EAE0762C4337430A986305C9
:10065000E40AA0EB08000022FD0A44EA47540A30ED
:1006600002D500200146E9E7010510196941DDE9DD
:10067000084500196941BDE8F04DA2E72DE9F04DAC
:1006800081EA030404F0004B21F0004514464FF0CA
:10069000000A23F0004150EA050220D054EA01028A
:1006A0001DD0C5F30A570246C5F31303C1F3130067
:1006B000C1F30A5640F4801543F48013A7EB0608F3
:1006C000101BD64608F2FD3873EB050002D308F183
:1006D000010801E092185B41B8F1000F03DA002035
:1006E0000146BDE8F08D00204FF480110646844697
:1006F0000EE0171B73EB050705D3121B63EB050315
:1007000006434CEA010C49084FEA300092185B415D
:1007100050EA0107EDD152EA030012D082EA040048
:1007200083EA0501084305D0101BAB4106D2012224
:10073000002306E000224FF0004302E06FF00102C8
:1007400053101AEB06004CEB085110EB0A0041EB7A
:100750000B01BDE8F04DFFF734BFC1F30A52C1F3FE
:10076000130140F2FF3341F480119A4202DA002073
:100770000146704740F233439A42A2F2334202DC10
:100780005242FFF7FCBEFFF7EBBE000030B5041E7F
:1007900071F1000404DB4FF00044404264EB0101BE
:1007A000141E73F1000405DB1C464FF00043524257
:1007B00063EB0403994208BF904230BD1CB5094861
:1007C0000090094801900546009C06E0E06840F072
:1007D000010394E8070098471034AC42F6D3FFF7C2
:1007E000D7FC00001097000830970008B0B541F61C
:1007F0003814C2F20004204601F09CF9204664211E
:1008000001F018F9204601F02DF840F2100440F2F2
:1008100054058005C2F20004C2F2000506D4208807
:10082000E18A814214D864213FE000BF41F63810CC
:10083000C2F2000001F018F8688080B241F6C811D9
:100840004843010BC0F30F302180E18A8142EAD98D
:10085000A18A81421AD9618A814219D9218A8142A9
:1008600018D9E189814217D9A189814216D96189B4
:10087000814215D92189814214D9E188814213D955
:10088000A2880A21824288BF00210EE05A210CE092
:1008900050210AE0462108E03C2106E0322104E034
:1008A000282102E01E2100E014210AA0297000F096
:1008B00069FC218840F691627220914288BF7920BC
:1008C00040F65972914288BF6720BDE8B04006F0FB
:1008D0001FBA00BF63757272656E742062617474B2
:1008E0006572792076616C75653A2025642E0D0A53
:1008F00000000000FEE7000091B1F0B540F28E026A
:1009000001F0030C0429C2F200020DD24FF0000ED8
:100910000021BCF1000F3AD1BDE8F04088B2704729
:10092000002188B2704700BF21F00301C1F1000E21
:10093000431C00216FF003041D19EE788FB286EA84
:10094000172632F816602F7986EA012189B287EAE4
:10095000112132F811106F7981EA0626B6B287EAC2
:10096000162632F81660AD7986EA012189B285EA49
:10097000112132F8111004340EEB0405043581EA1C
:100980000621D9D104F1040EBCF1000FC4D010F837
:100990000E408BB284EA132332F81340BCF1010FEE
:1009A00084EA0121B8D07044437889B283EA1121E6
:1009B00032F81130BCF1020F83EA0421ACD0807808
:1009C00089B280EA112032F8100080EA0321BDE8E4
:1009D000F04088B2704700002DE9F04F81B00D461D
:1009E00001F00101C5F340021144C5F38002114436
:1009F000C5F3C00212EB010800F0218183460078A4
:100A0000082800F2198110EA050100F01581411E45
:100A100001291DD89BF80100FFF74DFD9FED8A0BC2
:100A200053EC102BFFF7D5FC41EC100B08F0E4F869
:100A300051EC100B9FED860B53EC102BFFF722FCB3
:100A4000FFF746FD06460027B8F1020F23D32CE03E
:100A5000082801D0042823D15E4616F8017F70785B
:100A6000FFF729FD9FED780B53EC102BFFF7B1FC3E
:100A700041EC100B08F0C0F851EC100BFFF728FD0B
:100A8000014607FB00F4304607F04AF80746E61C2B
:100A9000B8F1020F09D2384601B0BDE8F08F00BFAF
:100AA00000260027B8F1020FF5D3F0B21BF80010B2
:100AB000082900F2C18011EA050200F0BD804A1E3B
:100AC000022A19D258444078FFF7F5FC9FED5E0BDF
:100AD00053EC102BFFF77DFC41EC100B08F08CF869
:100AE00051EC100B9FED5A0B53EC102BFFF7CAFB88
:100AF000FFF7EEFC064423E0082901D004291FD1AA
:100B0000584490F8019080785BFA86FAFFF7D3FC9E
:100B10009FED4D0B53EC102BFFF75BFC41EC100BE2
:100B200008F06AF851EC100BFFF7D2FC07460AF107
:100B30000100394606F0F4FF09FB07610746CE1CA9
:100B4000B8F1030FA7D3F0B21BF80010082973D82F
:100B500011EA050270D04A1E022A19D25844407880
:100B6000FFF7A9FC9FED380B53EC102BFFF731FC7E
:100B700041EC100B08F040F851EC100B9FED340BDA
:100B800053EC102BFFF77EFBFFF7A2FC064423E09B
:100B9000082901D004291FD1584490F80190807889
:100BA0005BFA86FAFFF787FC9FED270B53EC102BBF
:100BB000FFF70FFC41EC100B08F01EF851EC100B86
:100BC000FFF786FC07460AF10100394606F0A8FF48
:100BD00009FB07610746CE1CB8F1040FFFF45BAFB9
:100BE000F0B21BF80010082926D811EA050223D01C
:100BF0004A1E022AFFF44FAF082902D004297FF4CD
:100C00004AAF584480785BFA86F4FFF754FC9FEDB6
:100C10000E0B53EC102BFFF7DCFB41EC100B07F035
:100C2000EBFF51EC100BFFF753FC0146601C01B0C9
:100C3000BDE8F04F06F074BF07A000F0A3FA00274C
:100C4000384601B0BDE8F08F000000000000C03F52
:100C50000000000000000040636F6E66696720635B
:100C60006F6D6D616E64206461746120747970656C
:100C70002077726F6E672E0D0A00000041F600307B
:100C8000C2F2000001F060B841F66030C2F200002C
:100C900001F05AB841F6E010C2F2000001F054B879
:100CA00041F64020C2F2000001F04EB841F6A0200B
:100CB000C2F2000001F048B841F68010C2F2000014
:100CC00001F042B8B0B52DED028B82B0202809D3D7
:100CD00049F29D60C0F6000000F054FA00F012FDE9
:100CE000C0E000BF0A784B788978054650B241EAE7
:100CF0000242A5F11801052942EA03240CD8DFE8D5
:100D000001F0030B435383992046FFF7D4FB0246BF
:100D10000B4689A0A3E000BF162D00F2A38040F28D
:100D20000801C2F2000191ED010AB0F1FF3F40F36A
:100D3000A18001EE104A9FED6A2AB8EE411A81EEB9
:100D4000021A91ED002A21EE000A80EE020A9FEDC0
:100D5000821A20EE018A062D00F2A08018EE100AF9
:100D6000FFF7D5FB41EC100B49F2AE60C0F6000076
:100D7000294622468DED000B00F004FAB0EE480A39
:100D800002B0BDEC028BB0BD00EE104A9FED4C1AD4
:100D9000B8EE400A80EE010A10EE100AFFF7B7FB2A
:100DA00002460B465EA05AE0002848F689006FF024
:100DB0007F41C0F2880048BF4C40A4FB0001880B73
:100DC00000EE100A40F20800C2F2000090ED011A95
:100DD000B8EE400A9FED492A21EE000A9FED481A1D
:100DE00020EE020A9FED472A30EE010A80EE020A49
:100DF000B3EE091A30EE010A10EE100AFFF787FB76
:100E000002460B4640A02AE000EE104A9FED341A3D
:100E1000B8EE400A80EE010A40F20800C2F200007B
:100E200080ED000A10EE100AFFF771FB02460B4638
:100E30002CA014E000EE104A9FED211AB8EE400AF3
:100E400080EE010A40F20800C2F2000080ED010AC3
:100E500010EE100AFFF75BFB02460B4619A0214675
:100E600000F090F99FED1D8AB0EE480A02B0BDEC8B
:100E7000028BB0BD6FF07F40604001EE100A9FED25
:100E8000352AB8EE411A81EE021A91ED002A21EEC0
:100E9000000A80EE028A062D7FF660AF18EE100A77
:100EA000EC1FFFF734FB02460B462CA0214600F056
:100EB00069F9B0EE480A02B0BDEC028BB0BD00BFCC
:100EC000000040497265662076616C75653A30783D
:100ED00025782C252E33660D0A0000000000000046
:100EE0000000F04A6761696E2076616C75653A3082
:100EF0007825782C252E33660D0A000000247449CD
:100F0000001024C800C00C4474656D702076616CBC
:100F100075653A307825782C252E33660D0A000049
:100F20007663632076616C75653A307825782C2578
:100F30002E33660D0A0000006F66667365742076B6
:100F4000616C75653A307825782C252E33660D0A4C
:100F5000000000000000F0CA00007A447363686E6D
:100F60002025643A252E32662E200D0A000000004E
:100F7000B0B540F28E0CC2F2000CACF1020E0022B1
:100F800041F221031102500209B200B203EAD13149
:100F900081EA422103EAD0304C0080EA410024B2C9
:100FA000410009B203EAD43484EA400003EAD131B3
:100FB000440081EA400024B2410009B203EAD4347B
:100FC00084EA400003EAD131440081EA400024B2BF
:100FD000410009B203EAD43484EA400003EAD13183
:100FE00081EA4000AEF80200501C0402410224B223
:100FF00009B203EAD43484EA402003EAD131440040
:1010000081EA400024B2410009B203EAD43484EA00
:10101000400003EAD131440081EA400024B241009B
:1010200009B203EAD43484EA400003EAD13144002F
:1010300081EA400024B2410009B203EAD43484EAD0
:10104000400003EAD13181EA40010CEB42004180CB
:10105000911C0D024C022DB224B203EAD53585EA6B
:10106000412103EAD4344D0084EA41012DB24C0001
:1010700024B203EAD53585EA410103EAD4344D00B0
:1010800084EA41012DB24C0024B203EAD53585EA49
:10109000410103EAD4344D0084EA41012DB24C00F1
:1010A00024B203EAD53585EA410103EAD43484EA5F
:1010B00041018180D01C0402410224B209B203EA3A
:1010C000D43484EA402003EAD131440081EA40006C
:1010D00024B2410009B203EAD43484EA400003EAAE
:1010E000D131440081EA400024B2410009B203EA50
:1010F000D43484EA400003EAD131440081EA40005C
:1011000024B2410009B203EAD43484EA400003EA7D
:10111000D13181EA40000432B2F5807F2EF8080F09
:101120007FF430AF41F65C60C2F2000001684FF41A
:101130008074CA6842F01002CA6040F29021C2F284
:1011400000014FF4807204F0A1F941F6E01141F67C
:101150009C40C2F20001C2F200000A688164886308
:1011600010684BF6BA2140F01000106040F24000C9
:10117000C2F20000018104214173A0F80F40B0BD0C
:101180007047000083B02DE9F043A2B0044629A8BF
:1011900001AD0EC028468021FFF75CF829AB284638
:1011A00080212246219307F00BFD002820D4013036
:1011B00040F22E0541F614686327C2F200054FF095
:1011C000000984B2C2F2000801AE287840B100BF25
:1011D00040463146224685F8009004F05DFA38B169
:1011E000380605D0013F28780028F1D1F8E700BF84
:1011F00022B0BDE8F04303B0704700002DE9F04F86
:1012000081B00A2906DC0FF2283001B0BDE8F04FAA
:10121000FFF7B8BF834600884AF6AB3200BAB2EB9C
:10122000104F1BD102393BF801009BF805909BF849
:1012300006A0BBF807808BB290FA90FCA3B101F036
:10124000030E40F28E01042BC2F2000110D20027DF
:101250000023BEF1000F3CD15BE000BFA9A001B0AC
:10126000BDE8F04FFFF78EBF00218C4554D156E00A
:10127000AEEB03070BF1010400236FF0030600BF80
:10128000A019C2789DB282EA152231F812200579A0
:1012900082EA03239BB285EA132331F813304579A0
:1012A00083EA022292B285EA122231F81220807972
:1012B00082EA03239BB280EA1320043631F810003F
:1012C000BB19043380EA0223DAD1371DBEF1000FC7
:1012D0001FD01BF807009AB280EA122031F8106084
:1012E000BEF1010F86EA032313D05F4478789AB2E7
:1012F00080EA122031F81040BEF1020F84EA062382
:1013000007D0B8789AB280EA122031F8100080EA4B
:10131000042399B28C4502D080A0FFF733FF40F23E
:101320004000C2F20000017881B9BBF8021001222E
:10133000A0F801109BF804100270C170BBF80210F5
:1013400041819BF80410017306F030FBAAF1A00064
:1013500023284FF0000700F2A680DFE810F02500F8
:10136000A400AB00A400A400A400A400A400A40056
:10137000A400A400A400A400A400A400A400A4004D
:10138000A400A400A400A400A400A400A400A4003D
:10139000A400A400A400A400A400A400A4002D00A4
:1013A000BB00C100310000BF0BF10900494600221B
:1013B000FFF712FB07469EE006F066FF07469AE03D
:1013C00009F00101C9F340021144C9F3800211443C
:1013D000C9F3C00298FA98F001EB0208B0EB480F8D
:1013E00040F08280B8F1000F00F085809BF8090082
:1013F000082810D810EA09010DD0013807280AD8AA
:10140000DFE800F008080904090909089BF80A0048
:1014100006F014FF0127B8F1010F44D09BF80B0030
:10142000082810D810EA09010DD0013807280AD879
:10143000DFE800F008080904090909089BF80C0016
:1014400006F0FCFE0127B8F1020F2CD09BF80D002E
:10145000082810D810EA09010DD0013807280AD849
:10146000DFE800F008080904090909089BF80E00E4
:1014700006F0E4FE0127B8F1030F14D09BF80F002B
:10148000082810D810EA09010DD0013807280AD819
:10149000DFE800F008080904090909089BF81000B2
:1014A00006F0CCFE0127BAF1A20F24D101B0BDE8AD
:1014B000F08F00BFDBF80A0004210090684606F0B8
:1014C000BFFFB9F1040FF1D1009806F0F7FF01B0AA
:1014D000BDE8F08F06F006FF0746FFF787F90AE040
:1014E00000F016F9074606E049F2D260C0F60000A7
:1014F000FFF748FE00275046394601B0BDE8F04FDF
:1015000000F05CB864617461206865616465722094
:1015100077726F6E672E0D0A000000006372632001
:10152000636865636B206572726F722E0D0A00002E
:1015300064617461206C656E6774682077726F6E89
:10154000672E0D0A00000000F0B581B04EF21806BB
:10155000CEF200063768054600F0FAFE044605EBB9
:10156000C500B7EB001F4FEA001517D200F0F0FEE0
:10157000A042FBD0781B00F5003000F54A5000BFB8
:101580003168884213D23168884210D2316888426B
:101590000DD231688842F3D309E000BF7D1B00BF44
:1015A0003068854203D200F0D3FEA042F8D001B0EB
:1015B000F0BD0000102000F0E3BD00002DE9F04771
:1015C00040F24008C2F2000840F28E0298F808305B
:1015D000C2F2000298F8097032F8133098F80A60E5
:1015E00087EA132732F8177088F80E0087EA03237A
:1015F0009BB286EA132332F8133098F80B6083EA23
:101600000727BFB286EA172732F8177098F80C60E0
:1016100087EA03239BB286EA132332F8133098F843
:101620000D6083EA0727BFB286EA172732F81770E2
:1016300098F80F6087EA03239BB280EA132332F8FD
:10164000133040F2300483EA0727BFB286EA172737
:1016500032F8177098F8106087EA03239BB286EA85
:10166000132332F8133041F65C6983EA072080B215
:1016700081EA102032F810004FF6184780EA032064
:1016800000BA49F2FB65000C0126CFF6FF77C2F2E3
:1016900000044FF0000AC2F20009C0F6000588F805
:1016A0001110A8F8120001E0013713D220780028A9
:1016B000FAD008F1080148460C2284F800A003F093
:1016C000EBFF064628460C21FFF75CFD002EEBD110
:1016D00006E000BF26B105A0BDE8F047FFF752BD08
:1016E0006720BDE8F04705F013BB00BF726573705B
:1016F0006F6E73652064617461206661696C2E0D84
:101700000A00000072B6702005F002FBFEE7000040
:1017100040F25400C2F200000078704770B581B00A
:101720000022009290F83C20012A03D102210846B1
:1017300001B070BD0E6801220A2E80F83C2009D34A
:10174000B2B25200D0F800E012FA86F21E3A0EF160
:101750000C0305E0D0F800E006EB46020EF11003A2
:101760004FF0070C1D680CFA02F4A5431D608D684C
:101770001C6805FA02F222431A60496806290FD84C
:1017800001EB81014A1F71461F2351F8345F9340DA
:1017900025EA03030B60B3B203FA02F214E000BFC0
:1017A00001EB81030C29B2B204D8714651F8304FD5
:1017B000233B03E0714651F82C4F413B1F259D40D0
:1017C00024EA05059A400D600B6842F2043CC4F21D
:1017D000010C1A43ACF541739E450A603BD1122EB1
:1017E00006D1DCF8001041F48001CCF8001032E0A2
:1017F00026F0010110292ED1DCF80010102E41F442
:101800000001CCF8001026D140F23401C2F20001F0
:1018100009684DF68362C4F21B32A1FB0212910CDF
:1018200001EB8101490000910099A1B100990139B2
:101830000091009979B1009901390091009951B155
:10184000009901390091009929B10099013900915D
:1018500000990029EAD1002180F83C10084601B027
:1018600070BD0000006C70470068C06C70470000DD
:10187000002804BF0120704710B50446006C002802
:101880003ED0206CC00645D4206C41F20211884342
:10189000023042F204312064C4F20101086820F4ED
:1018A000403008600A6894E809101A43D4F810E040
:1018B0000A604168012321F4807141604168C0F6EB
:1018C000007341EA0E214160416821F0407141609E
:1018D000416841EA0C014160816821F40061816046
:1018E000E168826811438160A16A8268994222F0AE
:1018F00070628260826813D122F0405119E000BF0B
:10190000204600F065F80020606484F83C00206CFC
:10191000C006B9D50120002184F83C1010BD00BFDD
:1019200011438160816821F040518160E16A8268E1
:1019300011438160816821F0020181608168227E0B
:1019400094F8203041EA42018160416883B141F45A
:101950000061416041684EF2000221F46041416043
:10196000616ACFF6FF72436802EB4131194301E02F
:1019700021F400614160C16A40F2000C21F4700161
:10198000C162E2696169CFF6F07CC36A0CEB025276
:101990001A43C262826822F40072826094F8302096
:1019A000836843EA42228260826822F48062826015
:1019B000826842EA8121816000206064216C0122FA
:1019C00062F301012164002184F83C1010BD000085
:1019D00080B586B042F200010068C4F20101002225
:1019E00088420592049201D006B080BD43F63000D3
:1019F0000092C4F20200436943F480734361436977
:101A000003F480730093009B0092036843F0040387
:101A10000360006800F00400009000980820019026
:101A20000320CDE9020201F5684001A900F0B4FBF2
:101A300006B080BD70B5044600680D468268520548
:101A400044BF80685FEAC05038D400F081FC216850
:101A50000A68920749D40646681C3CD0DDB908687C
:101A6000800721D5086880073FD4086880071BD508
:101A70000868800739D40868800715D5086880078A
:101A800033D4086880070FD508688007E7D52CE0B5
:101A90000868800729D400F05BFC801B2168A842FD
:101AA000F6D908688007F3D4206C40F00400206465
:101AB000002084F83C00032070BD00BF206C40F083
:101AC00020002064002084F83C00012070BD00BF8D
:101AD0000868800709D40868800706D4086880076A
:101AE0005CBF08685FEA8070F2D56FF01200086092
:101AF000206C40F400702064886810F0405F01D0D2
:101B0000002070BD207E0028FAD1C86A10F4700F42
:101B100002D088684005F3D4206C20F480702064E3
:101B2000206CC004ECD4206C40F001002064002044
:101B300070BD000010B581B00021009190F83C10FC
:101B4000012903D1022001B010BD00BF04680121AA
:101B500080F83C10214651F8083FDB0729D10B687B
:101B60004DF6836243F001030B6040F23403C2F28E
:101B700000031B68C4F21B32A3FB02239A0C02EB86
:101B800042020092009AA2B1009A013A0092009A91
:101B90007AB1009A013A0092009A52B1009A013A41
:101BA0000092009A2AB1009A013A0092009A002A03
:101BB000EAD10A68036CD2070CD143F0100101642A
:101BC00000F1440101200A6810430860002001B0C0
:101BD00010BD00BF40F2017223EA020202F58072DA
:101BE00002646268520504D5026C012363F30D326E
:101BF0000264026C4FF0000E0023D20444BF426C1A
:101C000022F0060342F2043C436480F83CE06FF0AB
:101C10002200C4F2010C2060DCF80000C0060DD0E8
:101C2000ACF5417084422BD14FF60450CFF6FF70D3
:101C30005CF8000010F0405F22D125E042F2000085
:101C4000C4F20100844217D042F20020C4F2010025
:101C500084420DD042F20010C4F2010084420FD140
:101C6000DCF80000C00607D0ACF58270844207D1D2
:101C7000DCF80000C00603D4086810F0405F03D011
:101C8000002001B010BD00BF4FF080409BE7000076
:101C900070B5866D044600F05BFB94F835100229A0
:101CA00028D105462068216C026822F016020260E5
:101CB000426922F08002426109B9A16C19B1016840
:101CC00021F008010160016821F00101016000BFFD
:101CD00020680068C00715D000F03AFB401B0628BA
:101CE000F6D320206065032084F83500002184F8B5
:101CF000341070BD802060650120002184F834100C
:101D000070BD00BFE06D3F2101FA00F0B06001201E
:101D100084F835000020002184F8341070BD0000E4
:101D200090F83510022909D1052180F83510006896
:101D3000016821F0010101600020704780214165A8
:101D400001207047406D7047F0B581B00446002017
:101D5000009040F23400C2F200000268D4E916603C
:101D600048F2B51337680821C1F64E338140394235
:101D7000A2FB03250CD0226813685B0708D5136803
:101D800023F004031360B160616D41F001016165EE
:101D900001218140394208D022685269120604D5D7
:101DA000B160616D41F002016165042181403942F9
:101DB00008D022681268920704D5B160616D41F0C5
:101DC0000401616510218140394217D02068026802
:101DD000120713D5B16002680168520308D4C9051F
:101DE00008D4016821F008010160216C21B905E0E7
:101DF00008033FD4216C09B120468847E16D2020BB
:101E000000FA01F23A4241D020680368DB063DD572
:101E1000B26094F835300268052B1BD122F016020F
:101E20000260426922F080024261226C0AB9A26C0F
:101E30001AB1026822F0080202603F208840B060B8
:101E4000012084F83500216D0020002984F8340039
:101E500052D157E00168520310D4C90512D4016869
:101E600021F010010160012084F83500002084F881
:101E7000340007E0A16C0029BED1BFE7080301D4FC
:101E8000616C00E0E16B09B120468847606DC8B322
:101E9000606DC0072ED0052084F835002068A90A9F
:101EA000026822F001020260009A01328A42009226
:101EB0001AD80268D20717D0009A01328A420092DB
:101EC00012D80268D2070FD0009A01328A420092DB
:101ED0000AD80268D20707D0009A01328A420092DB
:101EE00002D80268D207DFD1012084F83500002033
:101EF00084F83400E16C29B1204601B0BDE8F0401F
:101F0000084700BF01B0F0BD2DE9F041044600F0E4
:101F10001FFAECB10546022084F835000020216844
:101F200084F83400086820F001000860216808681F
:101F3000C00711D000F00CFA401B0528F6D9032584
:101F400020230320636584F83550BDE8F08100BF8D
:101F50000120BDE8F08100BF086848F23F02CFF2DF
:101F60001002D4E9013500EA020C04F10C0898E8EB
:101F7000C10143EA0C032B431843D4E9072E304335
:101F800038431043626A40EA0E00042A40EA08031C
:101F90001CD1206BD4E90A2E40EA0E0018430860D9
:101FA0004869BEF1000F20F0030040EA020040F053
:101FB000040C11D0B8F5005F36D0B8F1000F45D150
:101FC000022A46D0012A3BD032B942E00B60486970
:101FD00020F0070040EA020C01F0F8004AF6AB22BC
:101FE0001038CAF6AA22A0FB02231A0949F210638C
:101FF000C1F814C0C0F600039A5C40F2FF335F28BA
:102000004FF03F0021EA030100FA02F088BF0431DB
:10201000C4E916128860002301250020636584F856
:102020003550BDE8F08100BF032AD5D801254023F3
:102030000120DFE802F0030E030500BF82E700BFC6
:10204000AEF1C070B0FA80F0400904E0032A04D376
:10205000C2D1CEF300600028BED00125402301206C
:10206000636584F83550BDE8F081000090F834C015
:10207000BCF1010F04BF0220704770B54FF0010C96
:1020800080F834C0D0F858E090F835C0BCF1010FAA
:1020900038D14FF0020C80F835C04FF0000CC0F87A
:1020A00054C0D0F800C08468056CC06DDCF80060D6
:1020B000402C26F48026CCF80060CCF804300B4687
:1020C00004BF13460A463F2101FA00F0CCF808305D
:1020D000CCF80C20CEF80800DCF8000040F0160028
:1020E000CCF800002DB1DCF8000040F00800CCF87E
:1020F0000000DCF8000040F00100CCF800000020F7
:1021000070BD00BF002180F83410022070BD0000B7
:10211000B0B5044600F01CF9054640F20000C2F2DA
:1021200000000078611C18BF044400BF00F010F9E3
:10213000401BA042FAD3B0BD102818BF7047B0B5FD
:102140000020C4F202001021102400F0F5F878B944
:1021500040F29035C2F20005686E03F035FF41F69B
:10216000A460696EC2F2000080ED000AC81C6866B7
:1021700043F61440C4F201000460BDE8B04070476B
:1021800043F61441C4F201010A68024214BF086018
:102190007047FFF7D1BF00002DE9F04F82B000F18A
:1021A0003E4707F1FF77860546EA972741F6004646
:1021B000C4F20206082243F6004EB04208BF0722CE
:1021C000C4F2010E072F38BF3A46002600274FF011
:1021D0000008009209E000BF08F101080237B8F1D9
:1021E000100F06F1040600F0A3800D68012202FA28
:1021F00008F415EA0409EFD0D1F804B003220BF07B
:10220000030CACF10105BA40012D6FEA020A0FD8A8
:102210008268CD6802EA0A02BD402A4382604268B1
:10222000A243CBF3001404FA08F42243426005E011
:10223000BCF1030F02D14FF0030C1EE0C2688C68A2
:1022400002EA0A02BC402243BCF1020FC26014D170
:102250006FF0030202EA58020244D2F820C006F0EE
:102260001C040F230D69A3402CEA0303A5402B4354
:102270001362D1F804B00BF0030C02680CFA07F3F8
:1022800002EA0A021A431BF4403F0260A4D0002273
:1022900043F644030192C4F202031A684FF6084C55
:1022A00042F480421A601A68CFF6FF7C02F4804242
:1022B0000192019A28F00302724452F80C3006F0A1
:1022C0000C050F24AC40A343009C04FA05F52B43F6
:1022D00042F80C30DEF808204B6842EA090543F664
:1022E0000C4CDC0258BF22EA0905CEF80850C4F2B3
:1022F000010CDCF800209C0242EA090558BF22EAE2
:102300000905CCF80050DEF804209C0342EA0905D8
:1023100058BF22EA0905CEF80450DEF80020DB039E
:1023200042EA090558BF22EA0905CEF8005053E7F2
:1023300002B0BDE8F08F00000069084018BF01201E
:1023400070470000002A08BF09048161704700003F
:1023500041F6B070C2F200000068704740F2000021
:1023600041F6B071C2F20000C2F2000100780A68C2
:10237000104408607047000080B543F60040C4F286
:102380000200016841F400710160016841F480615C
:102390000160016841F480710160032000F086F85B
:1023A000072000F005F800F027F8002080BD0000AD
:1023B00070B540F20006C2F2000640F234013278F5
:1023C000C2F200014FF47A730968B3FBF2F20446DB
:1023D000B1FBF2F1084601F0EDFD0F2C4FF00105C5
:1023E00008D838B94FF0FF3021460022002500F010
:1023F00031F87460284670BD82B0002043F6400179
:102400000190C4F202014A6842F480424A604A687C
:1024100002F480420192019A0090086840F08050D6
:102420000860086800F080500090009802B0704783
:10243000002848BF704700F01F01012202FA01F195
:102440001C2202EAD0004EF20012CEF200028150AD
:102450007047000010B54EF60C5CCEF2000CDCF8B4
:102460000030C3F3022E8EF00704042C28BF04248E
:10247000BEF103034FF0FF3E0EFA04F438BF002311
:10248000A14399400EFA03F39A43114300F00F025F
:1024900000F160430901043A03F5644362440028F3
:1024A00048BF02F10C03197010BD00004EF60C512C
:1024B000CEF200010A684FF6FF031A4060F30A22C9
:1024C00042F0806040F0FD7008607047002804BF53
:1024D000012070472DE9F04143F60808C4F20208D4
:1024E0000446D8F8F8030D4600F00700884207D2EA
:1024F00088F8F853D8F8F80300F00700A84277D11D
:102500002068810717D5410705D5D8F8001041F498
:10251000E051C8F80010010705D5D8F8001041F4C3
:102520006041C8F80010D8F80010A26821F0F0014E
:102530001143C8F80010C00740D1D8F8F80300F0E4
:102540000700A84207D988F8F853D8F8F80300F034
:102550000700A8424CD12068410707D5D8F80010E1
:10256000E26821F4E0511143C8F80010000708D5D3
:10257000D8F80000216920F4604040EAC100C8F8A2
:10258000000000F07DF8D8F8001049F2F852C1F3CD
:102590000311C0F60002515C40F2340220FA01F14E
:1025A00040F20400C2F200000068C2F200021160B2
:1025B000FFF7FEFE0020BDE8F08100BF6068811ECD
:1025C000022907D258F8081C89015CBF0120BDE828
:1025D000F08111E0012807D158F8081C89035CBF7D
:1025E0000120BDE8F08107E058F8081C890703D4F2
:1025F0000120BDE8F08100BFD8F8001021F00301F0
:102600000843C8F80000FFF7A3FE064641F28837EA
:10261000D8F80000616800F00C00B0EB810F8CD09E
:10262000FFF796FE801BB842F2D90320BDE8F08187
:1026300040F2340043F60801C2F20000C4F2020185
:102640000068096849F20862C1F38221C0F60002FD
:10265000515CC8407047000040F2340043F6080166
:10266000C2F20000C4F202010068096849F208627F
:10267000C1F34231C0F60002515CC840704700000F
:1026800010B543F60404C4F20204606800F00C01C3
:1026900042F200400829C0F2F40007D0042918BF14
:1026A00010BD41F20020C0F27A0010BD216801F097
:1026B0003F02216823684902C3F3881106D4A1FBB5
:1026C00000010023FDF77CFD07E000BF41F2002080
:1026D000C0F27A004843B0FBF2F021680222C1F355
:1026E000014102EB4101B0FBF1F010BD002804BF35
:1026F000012070472DE9F04182B00446007843F68E
:102700000006C007C4F202060CD0B06800F00C004E
:10271000042840F081803068800303D56068002879
:1027200000F06A81207880071BD5B06810F00C0F8C
:1027300009D0B06800F00C00082840F0878070686D
:10274000400200F183803068800703D5E0680128EB
:1027500040F052813068216920F0F80040EAC10061
:1027600030602078000713D4207840072AD4A56968
:10277000002D00F03C81B06800F00C00082840F00B
:10278000A180012D40F01081012002B0BDE8F08150
:102790006069002840F20000C4F2472000F07E800B
:1027A0000121C0F8801EFFF7D3FD0546706F80073A
:1027B000DAD4FFF7CDFD401B0228F7D9032002B081
:1027C000BDE8F081306C5FEAC0080AD400200190B7
:1027D000306C40F080503064306C00F080500190DC
:1027E000019847F20007C4F200073868C00547D4D3
:1027F000386840F480703860FFF7AAFD054600BFD6
:102800003868C0053CD4FFF7A3FD401B0228F7D968
:10281000032002B0BDE8F081B06800F00C00082889
:1028200003D1706840023FF576AF6068B0F5803F35
:1028300007D0B0F5A02F40F09B80306840F4802096
:102840003060306840F4803030609BE0E068002801
:102850005CD00020C4F2472001210160FFF778FD21
:10286000054600BF306880073FF574AFFFF770FD85
:10287000401B0228F6D9032002B0BDE8F08100BF5A
:10288000A068012805D0052854D1306F40F004001D
:102890003067306F40F00100306755E00021C0F82C
:1028A000801EFFF755FD0546706F80077FF55CAF12
:1028B000FFF74EFD401B0228F6D9032002B0BDE809
:1028C000F08100BF0027C4F2472700203866FFF7D9
:1028D0003FFD022D05460DD13068800140F190800A
:1028E000FFF736FD401B02284FF00300F4D902B079
:1028F000BDE8F0813068800179D5FFF729FD401BE4
:1029000002284FF00300F5D9F1E700BF0020C4F220
:10291000472000210160FFF71BFD05463068800756
:102920007FF51FAFFFF714FD401B02284FF0030097
:10293000F4D9DCE7316F002821F001013167316FF4
:1029400021F0040131677DD0FFF702FD054641F219
:10295000883700BF306F800700F18680FFF7F8FCF2
:10296000401BB842F6D9032002B0BDE8F08100BF99
:102970003168002821F480313160316821F48021F0
:1029800031607BD0FFF7E4FC054600BF3068800370
:102990003FF5C8AEFFF7DCFC401B6428F6D90320E6
:1029A00002B0BDE8F08100BF7068E16900F4800208
:1029B0008A4221D1216A00F03F028A421CD147F6A7
:1029C000C071626A0140B1EB821F15D1A16A4FF656
:1029D000FF73C903994300F44032A1F580318A4264
:1029E0000AD1E16A00F07060B0EB016F04D1002001
:1029F00002B0BDE8F08100BF012002B0BDE8F08167
:102A000004F11C052FCD084340EA8210D9034FF68C
:102A1000FF729143A1F5803140EA05600843706080
:102A200001203866FFF794FC044600BF306880013F
:102A3000DDD4FFF78DFC001B02284FF00300F5D911
:102A400055E700BFFFF784FC054641F2883700BF19
:102A5000306F800708D5FFF77BFC401BB8424FF072
:102A60000300F5D943E700BFB8F1000F3FF57FAE93
:102A7000306C20F08050306479E600BFFFF768FCCE
:102A8000054600BF306880037FF54CAEFFF760FC61
:102A9000401B64284FF00300F4D928E7704700007A
:102AA0002DE9F04186B00446032084F83400606CC0
:102AB0008846032822D14FF08050A16B40F2FF5688
:102AC0000843A063A06BC0F2400600283ED02068F7
:102AD0000125866384F834504FF4007103F096FBAF
:102AE00028B1216801258E63A16B0843A0630121F1
:102AF000284684F8341006B0BDE8F081B8F1000F24
:102B000036D0B8F5805FD6D0B8F5006F46D12068D2
:102B100000210591049103F0F5FA800142D404A943
:102B2000204603F001FF0028C7D19DF8160040079A
:102B300030D5216D2068090403F014FB0028BCD1B6
:102B40002068022103F06EFBB7E700BF94E80F0096
:102B5000D4E90557CDE90085029703F0DDFA206836
:102B600000254FF4007103F051FB0028B9D1BEE7F6
:102B7000206800210591049103F0C4FA800111D46A
:102B800004A9204603F0D0FE002896D19DF8160037
:102B9000C0070BD14FF080608FE700BF4FF000609F
:102BA0008BE700BF4FF4006087E700BF216D20680E
:102BB000090403F0D7FA00287FF47FAF20680021D2
:102BC00003F030FB79E7000070B5044690F834005C
:102BD00001281CBF022070BD15460E4600208A4207
:102BE000A06305D2A06B40F00060A063012070BD1F
:102BF000E06DA84206D2A06B40F00070A0630120F7
:102C000070BD00BF032084F8340094F84C10206895
:102C100089060DD440F2FF51C0F240018163A06BE0
:102C200040F08060A063012084F8340070BD00BFD4
:102C3000002103F067FA80010ED4606C012818BFF0
:102C40006D02032816D1206803F0F8FA68BB012052
:102C500084F83400002070BD206840F2FF51C0F2BB
:102C600040018163A06B40F40060A063012084F800
:102C7000340070BD0128206818BF7602314603F089
:102C800093FB0146206859B140F2FF52C0F2400266
:102C90008263A06B0843A063012084F8340070BDF8
:102CA000294603F075FB0028CDD0216840F2FF5281
:102CB000C0F240028A63A16B0843A063012084F83C
:102CC000340070BD70470000D0E91D2C130E0B704E
:102CD000130A120642EA1C224B804A60D0E91E23E6
:102CE0000A721A0E4A7290F8832042EA0322CA60DE
:102CF000D0F88000C0F303520A74C0F30B22C0B2B4
:102D000040084A820875012200204A757047000079
:102D100080B5D0E9193ED0F844C09A0F0A70C3F3C9
:102D200083624A70C3F301628A701A0CCA701A0A6D
:102D30000A714FEA1E524B71CA80CEF303420A72E7
:102D4000CEF3C0324A72CEF380328A72CEF3403272
:102D5000CA72CEF300320A730022BCF1010F4A732B
:102D600036D0BCF1000F40F0878040F6FC72C36E95
:102D700002EA8E0242EA93720A61C26EC2F3C26331
:102D80000B75C2F302634B75C2F342538B75C2F3EA
:102D90008243CB75C2F3C2330B76D1F810C00B7EE1
:102DA0000CF1010C03F0070302330CFA03FCC0F82A
:102DB00054C00B7A03F00F0E012303FA0EF3836560
:102DC0005B0A03FB0CF3C3654FF4007312E000BF12
:102DD000B0F86E200EF03F0342EA03420A610A692E
:102DE0004FF4806303EB82224FF40073C0E9152394
:102DF000C265C26E0366C2F380334B76C2F3C6135C
:102E000002F07F028B76CA76006FC20F0A77C0F39A
:102E100041724A77C0F382628A77C0F38352CA77DD
:102E2000C0F3405281F820200022C0F3004381F813
:102E3000212081F82230C0F3C03381F82330C0F361
:102E4000803381F82430C0F3403381F82530C0F35B
:102E5000003381F82630C0F3812381F82730C0F396
:102E60000123C0B2400881F8283081F829000120F0
:102E700081F82A00104680BD016840F2FF52C0F27E
:102E800040028A63816B012241F08051816380F8A6
:102E90003420104680BD000010B5016D0446006866
:102EA000090403F043FB28B1A16B0843A063002091
:102EB00010BD00BF2068002103F024F9C0F34320B7
:102EC00010BD0000F0B581B004460068256B416B71
:102ED000090405F008012BD551B3E56A2DB3A66AA4
:102EE00003F036F93060206803F032F97060206832
:102EF00003F02EF9B060206803F02AF9F060206832
:102F000003F026F93061206803F022F9706120682F
:102F100003F01EF9B061206803F01AF9F06106F1C0
:102F20002000A5F12001C4E90A0101B0F0BD00BFF5
:102F3000426BD20540D4426B520465D5002963D060
:102F4000666A002EF1D0276A6D46396800912946DD
:102F500003F002F9796820680091294603F0FCF833
:102F6000B96820680091294603F0F6F8F9682068EE
:102F70000091294603F0F0F839692068009129464C
:102F800003F0EAF8796920680091294603F0E4F833
:102F9000B96920680091294603F0DEF8F8692946EE
:102FA00000902068203703F0D7F8A6F12000C4E98C
:102FB000087001B0F0BD00BF4FF480718163C16B38
:102FC0004CF23A329143C163C16A2A0721F00101F0
:102FD000C16259D42906A8D5A90608D503F018FB63
:102FE00028B1A16B0843A0632046FFF76BFEA8073A
:102FF0009BD12068C16A21F00801C16201212046ED
:1030000084F834105EE000BF416B40F23A22114276
:103010003FF48BAF416B89075AD4416B09075ED4EB
:10302000416B890662D4416BC90666D4416B890540
:1030300003D5A16B41F00801A16340F23A718163AD
:10304000C16B40F23A329143C16303F0E1FAA16BE4
:1030500008432907A06359D428067FF566AF15F009
:10306000300F5FD0E06B46F6BD01C0F60001016590
:10307000FEF756FE00283FF458AFE06B01B0BDE804
:10308000F04003F01BBC00BF15F0220F08D003F086
:10309000BFFA28B1A16B0843A0632046FFF712FED8
:1030A000206840F23A518163012084F83400002006
:1030B000A9072063204605D001B0BDE8F04000F02C
:1030C0001DBB00BF01B0BDE8F04000F019BB00BF60
:1030D000A16B41F00201A163416B0907A0D5A16B6F
:1030E00041F00801A163416B89069CD5A16B41F0B9
:1030F0002001A163416BC90698D5A16B41F0100175
:10310000A163416B890594D497E700BF012000219A
:1031100084F834002046216301B0BDE8F040FFF799
:10312000D1BD00BFA80711D0206C46F64101C0F602
:1031300000010165FEF7F4FD00283FF4F6AE206CB7
:1031400001B0BDE8F04003F07BBB00BF00210120CF
:10315000A16384F834002046216301B0BDE8F0404B
:10316000FFF79CBC002804BF0120704710B504463F
:1031700090F8340020B900202077204600F018F99C
:10318000032084F83400204600F00CF800284FF0AB
:10319000010018BF10BD0021A163216384F8340031
:1031A000002010BDF0B58FB00446006876210026DF
:1031B00002910021002200230096019602F0ACFF4C
:1031C00048F2A007C4F225273E60206802F0BAFF4B
:1031D000012502203D60FEF79BFF0496206803F066
:1031E0003BF838B184F83450A16B0843A0632846FB
:1031F0000FB0F0BD206803F05FF858B120680021DF
:10320000A16403F029F80028ECD1A06C012803D0B8
:103210000AE000BF0120A0642068002102F0A2FFA4
:1032200010B14FF08050DDE704984FF6FE77B842BA
:103230001ED80026CCF210162068002102F092FF62
:103240000028CFD12068314602F098FF0028E8D14D
:103250002068002102F056FF04990131049104997D
:10326000B94202D8B0F1FF3FE6DCC0F3807000E065
:10327000002004994FF6FF72914203D34FF0807003
:10328000B0E700BF606420680125ADF80E5002F081
:1032900035FFB8B3606C032838D12068042102F0F0
:1032A00031FF000DE06404A92046FFF731FD00283E
:1032B000B7D1216D20680A04002303F081F80028AB
:1032C0007FF490AF94E88F00D4E90565CDE90076EE
:1032D000029502F021FF20684FF4007102F096FF82
:1032E000002861D0216840F2FF52C0F240028A6398
:1032F000A16B01250843A06384F8345028460FB021
:10330000F0BD00BF4FF080606CE700BF206803F0A5
:1033100063F800287FF466AF2068002102F0F2FE17
:10332000216860670846042102F0ECFE2168A0676E
:103330000846082102F0E6FE2168E06708460C21F5
:1033400002F0E0FE616CC4F880000329A5D020687B
:103350000DF10E0103F0F6F800287FF443AF606C26
:1033600003289AD0BDF80E1020682165090403F0E7
:1033700081F800287FF436AF2068002102F0C2FEF9
:10338000216860660846042102F0BCFE2168A06640
:103390000846082102F0B6FE2168E06608460C21C6
:1033A00002F0B0FE206778E7002528460FB0F0BD98
:1033B0002DE9F04F85B00446006842F60047C4F29C
:1033C0000107B84202D005B0BDE8F08F002643F6F1
:1033D00030000096C4F2020041696D4641F400617C
:1033E000416141694FF0020A01F4006100910099C6
:1033F000009601684FF0030841F004010160016884
:103400004FF00C0B01F00401009100990096016847
:1034100041F0080101600068294600F008000090B2
:1034200000984FF4F850009007F55C40CDE901A6F4
:10343000CDF80C80CDF810B0FEF7AEFE02A84FF02C
:10344000040980E8400907F560402946CDE9009A63
:10345000FEF7A2FE41F6801546F25840C2F2000582
:10346000C4F202004FF0006140224FF4806385E80F
:10347000470005F110004FF480574FF4804C4FF097
:10348000200E80E888504FF400304FF400014FF4D4
:103490000012C5E908092846C5E90A812A63FEF732
:1034A00033FD002818BFFEF72DF931200621002238
:1034B000E563AC63FEF7CEFF3120FEF7B9FF05B040
:1034C000BDE8F08F2DE9F04786B01F4616460D4641
:1034D0000446FEF73DFF9DB1804694F83400012874
:1034E00016D10021A163E06DBA19824218D9A06BF0
:1034F00040F00070A063012006B0BDE8F08700BF77
:10350000A06B40F00060A063012006B0BDE8F0872A
:10351000A06B40F00050A063012006B0BDE8F0872A
:10352000032084F83400626C2068012A4FF0FF32D7
:10353000C16218BF760200927A024FF0020901922E
:103540009022CDE903914FF0010A69460292CDF82D
:1035500014A002F0BFFD022F18D3C4F830902068E9
:10356000314602F0FDFEC8B1216840F2FF52C0F2C0
:1035700040028A63A16B0843A0630120002184F804
:103580003400216306B0BDE8F08700BFC4F830A066
:103590002068314602F0F0FE0028E5D1DDF83890D1
:1035A000019E40F22A3A05E0FEF7D2FEA0EB0800A9
:1035B000484541D22068426B416B12EA0A0F25D17F
:1035C0000904F1D5002EEFD002F0C2FD286020687A
:1035D00002F0BEFD6860206802F0BAFDA8602068B5
:1035E00002F0B6FDE860206802F0B2FD28612068B4
:1035F00002F0AEFD6861206802F0AAFDA8612068B3
:1036000002F0A6FDE8612035203ECDE7022F27D34A
:1036100011F4807124D0616C032921D002F0F8FFED
:1036200001462068E1B140F2FF52C0F240028263DD
:10363000A06B0843A0E700BF206840F2FF51C0F232
:1036400040018163A06B40F00040A063012084F83A
:10365000340000202063032006B0BDE8F08700BFDF
:10366000416B09075CBF416B5FEA815108D540F2AD
:10367000FF51C0F240018163A06B40F008007BE77E
:10368000416B89071CD4416B890623D42068416BA8
:10369000890229D546B302F05BFD45F8040B043ED0
:1036A000FEF756FEA0EB08004845EFD3206840F235
:1036B000FF51C0F240018163A06B40F000405BE726
:1036C00040F2FF51C0F240018163A06B40F0020064
:1036D00052E700BF40F2FF51C0F240018163A06B8E
:1036E00040F0200048E700BF40F23A5181630120DA
:1036F00084F83400002006B0BDE8F0877047000071
:1037000041F6C031C2F2000100680968884218BF62
:10371000704740F22D00C2F2000001210170704795
:10372000F0B587B0044689B194F83400012815D16A
:103730004FF0000EC4F838E0E06D1E46134483429B
:1037400010D9A06B40F0007003E000BFA06B40F008
:103750000060A0630127384607B0F0BD0227384655
:1037600007B0F0BD032084F834002068E36BD4F880
:1037700044C0C0F82CE0C76B0D4640F21A21394313
:10378000C16346F6AD01C0F60001D96346F2C971C6
:10379000BCF1010FC0F6000118BF5202022EC3E9AE
:1037A000131E0FD3A0212163114602F041FF80B107
:1037B000216840F2FF52C0F240028A63A16B0127E8
:1037C00008432BE090212163114602F03DFF0028C1
:1037D000EED148F28C50C4F2252001270760E06B3F
:1037E00040220368216882601A68760267F38712B4
:1037F0001A6001F18002B3082946FEF737FCA8B130
:10380000206840F21A22C16B9143C16340F2FF511C
:10381000C0F240018163A06B40F08040A0630020B3
:1038200084F834702063384607B0F0BD4FF0FF30A5
:10383000CDE90106902003900020CDE90400206826
:1038400001A9069702F046FC0027384607B0F0BDF4
:1038500070470000B0B582B00446006841688268D5
:1038600002F04103012B09D111F0400306D0216C75
:10387000204602B0BDE8B040084700BF930709D515
:1038800011F0800306D0616C204602B0BDE8B04064
:10389000084700BF12F4B07F18BF11F0200301D118
:1038A00002B0B0BD530618D594F85130032B09D19E
:1038B00000210191C168019180680190019802B0D6
:1038C000B0BD00BF636D43F0040363650023019343
:1038D000C368019383680193019B930604D4D205C6
:1038E00011D4626DDAB9DBE7636D43F00103636500
:1038F0000023019383680193036823F0400303606E
:10390000019BD205EDD5626D42F00802626500228E
:10391000019282680192019A626D002AC0D04268C9
:10392000890722F0E00242604FF0010284F8512042
:1039300020D0416846F6A12521F003014160E06CEA
:10394000C0F6000538B10565FEF7EAF918B1606DFB
:1039500040F040006065A06C0028A1D00565FEF72E
:10396000DFF900289CD0606D40F04000606502B037
:10397000B0BD00BF204602B0BDE8B040FFF768BF51
:1039800070B538B10446406A30B10020206104F1BE
:10399000140007E0012070BD6068B0F5827F03D09D
:1039A00004F11C00002101600026A66294F8510079
:1039B00020B9204684F8506000F03CF8022084F8DA
:1039C000510094E80F0001F48271056802F404428A
:1039D00025F040050560114403F400622369114499
:1039E00003F002026369114403F00102A369E5696F
:1039F000114403F40072114405F03802256A1144A1
:103A000005F08002A56A114305F4005211430160DC
:103A1000626A042101EA134102F01002114441607C
:103A2000C16921F40061C1610120666584F851001B
:103A3000304670BD70B586B00446006843F600019C
:103A4000C4F2000100268842CDE90466CDE9026691
:103A500001962FD043F20001C4F20101884279D1CE
:103A6000002043F630010090C4F202014A6942F49A
:103A700080524A614A6902F480520092009A009092
:103A80000A6842F001020A60096801F00101009130
:103A90000099E02101910221CDE902100320049058
:103AA000052005900020C4F2020001A9FEF774FB76
:103AB00006B070BD43F630050096C4F202052869D1
:103AC00001A940F480402861286900F480400090FA
:103AD00000980096286840F002002860286800F0EE
:103AE0000200009000984FF4604001900220CDE960
:103AF000020603200490052005900020C4F2020075
:103B000000F58060FEF748FB05F5215041F6E01511
:103B1000C2F20005C5E900064FF4003040214FF421
:103B20008062C5E908062846C5E90216C5E90426EB
:103B3000C5E90666FEF7E8F9002818BFFDF7E2FDC3
:103B4000242003210022A564AC63FEF783FC24201B
:103B5000FEF76EFC06B070BD2DE9F04383B01E4643
:103B600015460F460446FEF7F3FB94F851108146C4
:103B7000012909D1002F4FF0010018BF002D0FD1EE
:103B800003B0BDE8F08300BF6068B0F5827F0DD15F
:103B900004294FF00200F3D1A1680029EAD0EFE731
:103BA000002EEDD094F85000012803D1022003B07C
:103BB000BDE8F083012084F8500094F85100002102
:103BC00004281CBF052084F851006165A563E687C1
:103BD000A6872763E6862068A6862164616401685B
:103BE000490603D4016841F0400101606168731E19
:103BF000E268B1FA81F1B3FA83F3DDF8288049096C
:103C00005B09B2F5006F41EA030165D131B137F8C4
:103C1000021BC1602763E08E0138E086012518F1A0
:103C2000010032D102E000BFFEF792FBE08E18B92E
:103C3000E08F002800F0B8802068816889070CD5E3
:103C4000E18E51B1012D08D1216B002531F8022BF5
:103C5000C2602163E18E0139E1868168C907E3D042
:103C6000E18F0029E0D0C068A16B012521F8020B8B
:103C7000A163E08F0138E087D6E700BFFEF768FB5D
:103C8000A0EB0900404580F0A580E08E18B9E08FD8
:103C9000002800F089802068816889070CD5E18EB2
:103CA00051B1012D08D1216B002531F8022BC260E2
:103CB0002163E18E0139E1868168C907DED0E18F99
:103CC0000029DBD0C068A16B012521F8020BA1639C
:103CD000E08F0138E087D1E739B139780173206B83
:103CE00001302063E08E0138E086012518F10100E3
:103CF00032D101E0FEF72CFBE08E10B9E08F0028F6
:103D000052D02068816889070ED5E18E61B1012DFE
:103D10000AD1216B002509780173216B20680131DC
:103D20002163E18E0139E1868168C907E2D0E18F24
:103D30000029DFD0C068A16B01250870A06B01309D
:103D4000A063E08F0138E087D4E700BFFEF700FBF7
:103D5000A0EB090040453DD2E08E08B9E08F18B3D2
:103D60002068816889070ED5E18E61B1012D0AD1E5
:103D7000216B002509780173216B206801312163D3
:103D8000E18E0139E1868168C907DFD0E18F002922
:103D9000DCD0C068A16B01250870A06B0130A06366
:103DA000E08F0138E087D1E7204602210122434617
:103DB000CDF8009002F018FFB0B1606D40F0200027
:103DC000606520206065002084F85000012003B069
:103DD000BDE8F083012084F85100002084F85000F1
:103DE000032003B0BDE8F08340F23400C2F20000CB
:103DF000006849F68171C1F25E61A0FB0101480DC6
:103E00004FF47A71484302906068B0F5827F21D107
:103E10002046802100224346CDF8009002F0E4FEC7
:103E20000028CAD1A06838B9002001902068C16874
:103E30000191806801900198012084F851000020D0
:103E400084F85000606D002818BF012003B0BDE861
:103E5000F08300BF02980028E4D002980138029055
:103E6000206880680006DDD502980028DAD0029824
:103E700001380290206880680006D3D50298002897
:103E8000D0D0029801380290206880680006C9D519
:103E900002980028C6D002980138029020688068F5
:103EA0000006D7D4BEE7000010B5044690F85100D4
:103EB00001280BD100294FF0010018BF002A01D1C1
:103EC00010BD00BF94F85000012801D1022010BDA0
:103ED000012084F8500003204FF0000E84F85100B8
:103EE000C4F854E02163A286E286C4F838E0C4E94D
:103EF00010EEA4F83CE0A4F83EE0A0682268B0F51B
:103F0000004F07D1106820F040001060106840F4A6
:103F100080401060A06C46F6CD2C46F6D523C0F646
:103F2000000CC0F60003C0E90F3C46F6AD23C0F616
:103F30000003C0E9133EE38E0C32FEF797F848B158
:103F4000606D40F010006065002084F85000012092
:103F500010BD00BF21680868400603D4086840F01F
:103F600040000860002084F850004A6842F02002B7
:103F70004A604A6842F002024A6010BD41F69C4124
:103F8000C2F2000100680968884218BF704740F219
:103F90002F0C40F20040C2F2000C0123C4F20200D8
:103FA0004FF4805101228CF80030FEF7CBB90000AD
:103FB00070470000411E0020B0EB116F1CBF0120B4
:103FC00070474EF21002CEF2000251604EF62351BD
:103FD000CEF20001F0230B70072190601160704752
:103FE000704700007047000090F83C20012A04BF91
:103FF00002207047B0B501F108053CCDD1E900CEF3
:1040000023F47C5322F470521A432EF4F0431A43E3
:104010002CF4E0431A4324F4C0431A432A43C969E9
:1040200022F48042036811435964002180F83C1057
:10403000BDE8B0400846704790F83C20012A4FF098
:10404000020254D010B580F83D200268D2F804E096
:10405000D2F808C00C682EF07003234341F2FF74BD
:10406000C4F20004A24253600EDC40F2FF73C4F2BB
:1040700000039A4216DCB2F1804F2BD040F200438D
:10408000C4F2000324E000BF40F2FF33C4F2010396
:104090009A4213DC41F60003C4F200039A4219D09D
:1040A000002313E040F60003C4F200039A4211D04B
:1040B00040F60043C4F200030AE000BF44F20003EC
:1040C000C4F201039A4205D040F20043C4F2010356
:1040D0009A4204D149682CF0800319439160012170
:1040E000002280F83D1080F83C20BDE810401046CA
:1040F00070470000002804BF0120704710B5044637
:1041000090F83D0028B9002084F83C00204600F0DB
:104110001FF8022084F83D002068211D02F048FFAE
:10412000012084F8460084F83E0084F83F0084F8BB
:10413000400084F8410084F8420084F8430084F889
:10414000440084F8450084F83D00002010BD0000C4
:1041500010B582B000684FF6FF71C4F200018842CA
:104160001CDCB0F1804F35D041F20001C4F20001F7
:1041700088422DD10020019043F64000C4F2020095
:104180000168002241F0100101600068062100F082
:104190001000019001983620362442E044F20001DC
:1041A000C4F20101884229D00021C4F201018842F1
:1041B0000ED10020019043F64000C4F20200416895
:1041C00041F001014160406800F0010023E000BFC0
:1041D00002B010BD0020019043F64000C4F202007E
:1041E0000168002241F0010101600068002100F037
:1041F0000100019001981C201C2412E00020019075
:1042000043F64000C4F20200416841F4803141604D
:10421000406800F4803001900198182003210022AA
:104220001824FEF717F9204602B0BDE81040FEF74B
:10423000FFB8000090F83D1001291CBF0120704715
:10424000022180F83D10006841F2FF72C168C4F29B
:104250000002904241F00101C1600DDC40F2FF71AB
:10426000C4F20001884215DCB0F1804F2AD040F240
:104270000041C4F2000123E040F2FF31C4F2010129
:10428000884213DC41F60001C4F20001884219D0D3
:10429000002113E040F60001C4F20001884211D071
:1042A00040F60041C4F200010AE000BF44F2000100
:1042B000C4F20101884205D040F20041C4F201017C
:1042C000884206D1816801F00701062904BF002059
:1042D0007047016841F00101016000207047000053
:1042E0000146006841F21113C26822F00102C26067
:1042F000026A1A4204D00122002081F83D20704752
:10430000026A40F244431A42F5D1026822F00102E7
:1043100002600122002081F83D20704790F83C2087
:10432000012A4FF0020200F0C58080B580F83D20E0
:10433000D0F800C04FF67772DCF8083023EA0202AA
:10434000CCF808200B684F2B28DC1F2B44DD202BDA
:1043500045D0302B43D0402B40F0AE80D1F804E064
:10436000C968DCF82030DCF8202022F00102CCF80B
:104370002020DCF8182022F0F00242EA011123F09C
:104380000A0242EA0E02CCF81810CCF82020DCF821
:10439000081041F0470121F0300180E06F2B27DD4C
:1043A000B3F5005F48D0B3F5805F7AD0702B40F052
:1043B0008380D1E901E3C968DCF8082043EA0E03F1
:1043C00022F47F4243EA01211143CCF80810DCF8C3
:1043D000081041F0770162E00BB1102B6CD1DCF8D2
:1043E000081021F07001194341F0070157E000BFA8
:1043F000502B35D0602B5FD1D1F804E0C968DCF8D0
:104400002030DCF8202022F01002CCF82020DCF84C
:10441000182022F4704242EA013123F0A00242EA5D
:104420000E12CCF81810CCF82020DCF8081041F05F
:10443000670121F0100132E0D1E901E3C968DCF83D
:10444000082043EA0E0322F47F4243EA012111438C
:10445000CCF80810DCF8081041F480411FE000BFE0
:10446000D1F804E0C968DCF82030DCF8202022F024
:104470000102CCF82020DCF8182022F0F00242EAF9
:10448000011123F00A0242EA0E02CCF81810CCF80F
:104490002020DCF8081041F0570121F02001CCF871
:1044A00008100022012180F83D10002180F83C1006
:1044B000BDE88040104670470122F3E770470000D6
:1044C00070B504460068C5680669B10716D515F0D1
:1044D000020113D06FF0020101610121217780698F
:1044E000800703D02046FFF7E9FF05E0204600F0F3
:1044F0008FF8204600F0D0F900202077700719D5FA
:1045000015F0040016D020686FF00401016102214B
:104510002177806910F4407F04D02046FFF7CEFF5A
:1045200006E000BF204600F073F8204600F0B4F922
:1045300000202077300717D515F0080014D0206828
:104540006FF00801016104212177C069800703D061
:104550002046FFF7B3FF05E0204600F059F820465B
:1045600000F09AF900202077F00619D515F0100018
:1045700016D020686FF01001016108212177C06911
:1045800010F4407F04D02046FFF798FF06E000BFFC
:10459000204600F03DF8204600F07EF9002020770C
:1045A000F00718BF15F0010002D1300609D412E05F
:1045B00020686FF001010161204600F0FFF930062C
:1045C00009D515F0800006D020686FF080010161E8
:1045D0002046FFF705FD700609D515F0400006D00E
:1045E00020686FF040010161204600F053FAB006E8
:1045F00058BF70BD15F0200008D021686FF0200270
:1046000020460A61BDE87040FFF7ECBC70BD0000B9
:104610007047000090F83C30012B04BF0220704727
:104620004FEAB202032A00F201812DE9F043DFE8EC
:1046300002F0033F7FBF00BF036840F200461C6AE0
:104640001A6A24F0020422F001021A621A46D3F810
:1046500004C052F818EF8F6843F48065C4F2010675
:10466000B54244EA070405D1CF6824F00C0427F0D2
:1046700004073C430F68B54206D1D1E905582CF434
:1046800040762E4346EA080C2EF073063743C3F8F3
:1046900004C09F614F6809695F631C629F6947F0AE
:1046A00008079F619F6927F004079F61B2E000BF80
:1046B000036840F200481C6A1A6A24F0200422F0C1
:1046C00010021A621A46D3F804C052F818EF8F6825
:1046D00043F48065C4F20108454544EA071407D154
:1046E000CF686FF0400624F0C00406EA0716344392
:1046F000D1F80090454506D1D1E905562CF4406724
:104700002E4347EA860C2EF4E64747EA0927C3F80A
:1047100004C09F614F6809699F631C629F6947F4E9
:1047200000679F619F6927F480679F6171E000BF08
:10473000036840F200481C6A1A6A24F4007422F4E8
:1047400080721A621A46D3F804C052F81CEF8F68C0
:1047500043F48065C4F20108454544EA072408D1C2
:10476000CF6840F2FF463F0224F4406427EA060681
:104770003443D1F80090454506D1D1E905562CF4D3
:1047800040572E4347EA061C2EF0730747EA0907F5
:10479000C3F804C0DF614F680969DF631C62DF6929
:1047A00047F00807DF61DF6927F00407DF6131E0C8
:1047B000036840F20045D3F820C01A6A43F48067CA
:1047C00022F480521A621A465C6852F81CEFD1F843
:1047D00000808E68C4F20105AF4204D14D6924F413
:1047E000804444EA85142CF4005747EA06372EF437
:1047F000E64646EA08265C60DE614E6809691E648A
:104800001F62DF6947F40067DF61DF6927F48067B3
:10481000DF6109021368194311600021BDE8F0430C
:10482000002280F83C200846704700BF012100228A
:1048300080F83C2008467047002804BF01207047DC
:1048400010B5044690F83D0028B9002084F83C00DB
:10485000204600F01FF8022084F83D002068211D4A
:1048600002F0A6FB012084F8460084F83E0084F89C
:104870003F0084F8400084F8410084F8420084F846
:10488000430084F8440084F8450084F83D0000208B
:1048900010BD0000704700007047000041B10829BA
:1048A00010D0042914BF00F1410200F13F020BE0D7
:1048B00090F83E20012A1CBF01207047022280F898
:1048C0003E2013E000F140021278012A1CBF0120B3
:1048D00070470222082907D0042914BF80F841201C
:1048E00080F83F2002E000BF80F84020006801F01F
:1048F0001F010122036A02FA01F123EA01020262A6
:10490000026A114341F2FF72C4F200029042016256
:1049100010DC40F2FF71C4F2000188421CDCB0F1EF
:10492000804F3FD040F20041C4F20001884239D0AC
:104930003DE000BF40F2FF31C4F20101884219DCC2
:1049400041F60001C4F2000188422BD00021C4F2DC
:10495000010188421AD02AE040F60001C4F20001A9
:1049600088421FD040F60041C4F20001884219D0AD
:104970001DE000BF44F20001C4F20101884211D0E1
:1049800040F20041C4F20101884210D1416C40F272
:10499000004340F48062C4F2010341F400419A42B2
:1049A000416404D1816801F00701062903D0016840
:1049B00041F001010160002070470000B0B50446DD
:1049C00041F68450C2F20000844211D100F006FF8B
:1049D00040F23805C2F20005696801F10101696021
:1049E00030B9B1F57A7F03D9FBF700FF002068608A
:1049F00041F67C00C2F200008068A04205D140F27E
:104A00003800C2F200000121017041F63C50C2F2B0
:104A10000000844218BFB0BD41F20004C4F2020499
:104A200020464FF480710122FDF78CFC20464FF4A4
:104A300080710022BDE8B040FDF784BCB0B50446EB
:104A400090F83C0001284FF0020008BFB0BD0125DE
:104A500084F83C5084F83D00204602F04BFB0028CF
:104A60004FF0010006D0002184F83D5084F83C103E
:104A7000B0BD00BF2068C16821F04001C160C168BD
:104A800021F48041C1600020002184F83D5084F869
:104A90003C10B0BD704700007047000010B50446E0
:104AA0000068416994F84120212A56D111F0800113
:104AB00053D000BF206850E8050F216820F0800027
:104AC00041E80502DAB1206850E8050F216820F0BE
:104AD000800041E8050292B1206850E8050F216886
:104AE00020F0800041E805024AB1206850E8050F37
:104AF000216820F0800041E80502002ADAD1A06B8D
:104B0000002818BFFDF7C4F8206850E8030F21689B
:104B100020F0C00041E80302DAB1206850E8030F3A
:104B2000216820F0C00041E8030292B1206850E8FB
:104B3000030F216820F0C00041E803024AB1206859
:104B400050E8030F216820F0C00041E80302002A6A
:104B5000DAD1202084F841002068406994F842109E
:104B6000222940F0A78010F0400000F0A38000BF91
:104B7000206850E8050F216820F0400041E8050258
:104B8000DAB1206850E8050F216820F0400041E8C4
:104B9000050292B1206850E8050F216820F040001E
:104BA00041E805024AB1206850E8050F216820F06D
:104BB000400041E80502002ADAD1E06B002818BF66
:104BC000FDF766F8206850E8030F216820F4907024
:104BD00041E80302BAB3206850E8030F216820F4CB
:104BE000907041E8030272B3206850E8030F216817
:104BF00020F4907041E803022AB3206850E8030FC4
:104C0000216820F4907041E80302002ADAD11AE00A
:104C1000206850E8050F216820F0010041E80502F6
:104C2000DAB1206850E8050F216820F0010041E862
:104C3000050292B1206850E8050F216820F00100BC
:104C400041E805024AB1206850E8050F216820F0CC
:104C5000010041E80502002ADAD1206B012824D1A5
:104C6000206850E8030F216820F0100041E803029B
:104C7000DAB1206850E8030F216820F0100041E805
:104C8000030292B1206850E8030F216820F0100061
:104C900041E803024AB1206850E8030F216820F080
:104CA000100041E80302002ADAD1202084F84200F3
:104CB00000202063002010BD70470000B0B582B016
:104CC000044600680168C368426901F02F05202D81
:104CD00003F0200506D12DB1204602B0BDE8B0405A
:104CE00002F062BC5FEA017C1EBF02F0010E03F419
:104CF000907212EB0E0243D1226BCD0618D5012A19
:104D000016D113F0100213D0002101910168019116
:104D1000416801910199406940063BD4A08DE18D25
:104D2000E28D002A18BF884240F0FE8102B0B0BD7B
:104D30000A0640F1E98013F0800200F0E58094F863
:104D400041102129F2D1A168B1F5805F03D1216919
:104D5000002900F06F82216A4A1C226209784160B2
:104D6000E18C01390A04E184E0D1C16821F08001BD
:104D7000C160C16841F04001C16002B0B0BD00BF78
:104D8000CA0718BF13F4807240F0DC804A0700F1B4
:104D9000DF80E4E0E06B01684A68A38D91B20029EE
:104DA00000F0C680994280F0C380E285C069B0F50A
:104DB000807F00F09C80206850E8030F216820F479
:104DC000807041E80302DAB1206850E8030F2168DF
:104DD00020F4807041E8030292B1206850E8030F8C
:104DE000216820F4807041E803024AB1206850E84D
:104DF000030F216820F4807041E80302002ADAD111
:104E0000206850E8050F216820F0010041E8050204
:104E1000DAB1206850E8050F216820F0010041E870
:104E2000050292B1206850E8050F216820F00100CA
:104E300041E805024AB1206850E8050F216820F0DA
:104E4000010041E80502002ADAD1206850E8050F88
:104E5000216820F0400041E80502DAB1206850E8FE
:104E6000050F216820F0400041E8050292B120685A
:104E700050E8050F216820F0400041E805024AB1E2
:104E8000206850E8050F216820F0400041E8050245
:104E9000002ADAD1202084F8420000202063206814
:104EA00050E8030F216820F0100041E80302DAB156
:104EB000206850E8030F216820F0100041E8030249
:104EC00092B1206850E8030F216820F0100041E8FB
:104ED00003024AB1206850E8030F216820F0100057
:104EE00041E80302002ADAD1E06BFCF7D1FE022090
:104EF0006063A08DE18D401A81B2204602B0BDE80A
:104F0000B040FFF7C9BD00BF49067FF50FAF13F0F2
:104F100040013FF40BAFC16821F04001C160202186
:104F2000204684F8411002B0BDE8B04000F01ABC41
:104F30008B427FF4FBAEC069B0F5807F7FF4F6AEA4
:104F400002226AE1626C42F0010262644A0706D5FD
:104F5000BEF1000F03D0626C42F0020262648A0765
:104F600006D5BEF1000F03D0626C42F00402626409
:104F7000BCF1000F06D55EEA050203D0626C42F078
:104F800008026264626C002A3FF4D0AE890604D540
:104F90001DB1204602F008FB20684069616C00F0FA
:104FA000400001F00801401800F0B680206850E889
:104FB000030F216820F4907041E80302BAB320681F
:104FC00050E8030F216820F4907041E8030272B3A7
:104FD000206850E8030F216820F4907041E8030234
:104FE0002AB3206850E8030F216820F4907041E84C
:104FF0000302002ADAD11AE0206850E8050F216880
:1050000020F0010041E80502DAB1206850E8050F00
:10501000216820F0010041E8050292B1206850E8C3
:10502000050F216820F0010041E805024AB120681F
:1050300050E8050F216820F0010041E80502002A30
:10504000DAD1206B012824D1206850E8030F2168B1
:1050500020F0100041E80302DAB1206850E8030FA5
:10506000216820F0100041E8030292B1206850E866
:10507000030F216820F0100041E803024AB12068C4
:1050800050E8030F216820F0100041E80302002AD5
:10509000DAD1202084F84200002020632068406993
:1050A000400640F1C180206850E8050F216820F0DB
:1050B000400041E80502DAB1206850E8050F216898
:1050C00020F0400041E8050292B1206850E8050F49
:1050D000216820F0400041E805024AB1206850E80C
:1050E000050F216820F0400041E80502002ADAD1CE
:1050F000E06B002800F0988047F2F111C0F6000143
:105100000165FCF70DFE00283FF410AEE06B016D69
:1051100002B0BDE8B04008472046FFF7CDFD0020B3
:10512000606402B0B0BD00BF401A00BF216851E802
:10513000031F226821F4907142E80313BBB3216876
:1051400051E8031F226821F4907142E8031373B3FE
:10515000216851E8031F226821F4907142E803138B
:105160002BB3216851E8031F226821F4907142E8B3
:105170000313002BDAD11AE0216851E8051F2268D9
:1051800021F0010142E80513DBB1216851E8051F58
:10519000226821F0010142E8051393B1216851E82A
:1051A000051F226821F0010142E805134BB1216877
:1051B00051E8051F226821F0010142E80513002B88
:1051C000DAD1202184F8421000212163216851E8BE
:1051D000031F226821F0100142E80313DBB12168AC
:1051E00051E8031F226821F0100142E8031393B134
:1051F000216851E8031F226821F0100142E80313DF
:105200004BB1216851E8031F226821F0100142E8E8
:105210000313002BDAD1022281B22046626302B06E
:10522000BDE8B040FFF738BC204602B0BDE8B04052
:10523000FFF742BD216A31F8022B6FF35F22426013
:1052400021628DE5002804BF0120704710B5044697
:1052500090F8410028B9002084F84000204600F072
:1052600021F8242084F841002068C16821F400510D
:10527000C160204602F018FA2068016921F49041CB
:105280000161416921F02A014161C16841F4005185
:10529000C16000202021606484F8411084F842102D
:1052A000606310BD2DE9F04387B00446006844F602
:1052B0000001C4F2000100268842CDE90566CDE96F
:1052C000036602966ED044F20041C4F200018842A7
:1052D00040F0D88043F630000196C4F20200016924
:1052E00046F2280841F4003101610169C4F2020864
:1052F00001F40031019101990196016841F0010129
:105300000160006802A900F00100019001980C20E2
:1053100002900220CDE903060320059007200690A5
:105320000020C4F20200FCF737FF41F6A02508F187
:105330007800C2F200054FF000674021C5E9000780
:1053400005F108004FF4806980E842022846C5E96B
:105350000566C5E907666E62FCF7D6FD002818BF32
:10536000FCF7D0F9A563AC6341F6402508F1600075
:10537000C2F20005C5E900072846C5E90266C5E98D
:105380000496C5E90666C5E90866FCF7BDFD002878
:1053900018BFFCF7B7F9E563AC63262005210022AE
:1053A00026246AE043F630000196C4F20200016947
:1053B00046F2280841F4802101610169C4F2020823
:1053C00001F48021019101990196016841F00801E1
:1053D0000160006802A900F00800019001984FF4F4
:1053E000407002900220CDE90306032005900720BB
:1053F00006900020C4F2020000F54060FCF7CCFEED
:1054000041F6603508F13000C2F200054FF0006748
:105410004021C5E9000705F108004FF4806980E8E4
:1054200042024FF40030C5E908062846C5E9056682
:10543000EE61FCF769FD002818BFFCF763F9A5636E
:10544000AC6341F60035C2F200050020C5E9020058
:10545000C5E90490C5E90600C5E908002846C5E984
:105460000087FCF751FD002818BFFCF74BF9E563F6
:10547000AC632720042100222724FCF7EBFF204601
:10548000FCF7D6FF07B0BDE8F083000070B582B02E
:10549000044690F8420020280AD113460A46002903
:1054A0004FF0010018BF002B06D102B070BD00BF45
:1054B000022002B070BD00BF002622202663A26237
:1054C000A385666484F84200E06B47F2793C47F2BA
:1054D000D9452168C0F6000CC0F60005C0E90FC52B
:1054E00047F2FD15C0F600050431C0E91356FCF77C
:1054F000BDFD38B110206064202084F842000120F6
:1055000002B070BD01962068016801914068019069
:105510000198206930B300BF206850E8030F21686C
:1055200040F4807041E80302E2B1206850E8030FC4
:10553000216840F4807041E803029AB1206850E885
:10554000030F216840F4807041E8030252B12068E3
:1055500050E8030F216840F4807041E80302002AFC
:10556000DAD100BF206850E8050F216840F0010043
:1055700041E80502E2B1206850E8050F216840F0DB
:10558000010041E805029AB1206850E8050F216842
:1055900040F0010041E8050252B1206850E8050FD3
:1055A000216840F0010041E80502002ADAD100BF7D
:1055B000206850E8050F216840F0400041E80502EE
:1055C000F2B1206850E8050F216840F0400041E842
:1055D0000502AAB1206850E8050F216840F040009C
:1055E00041E8050262B1206850E8050F216840F0EB
:1055F000400041E80502002A4FF00000D8D154E7EE
:10560000002002B070BD000070470000704700002D
:1056100041F65C61C2F2000100680968884218BF67
:1056200070470168C90601D4704700BFB0B582B0A9
:1056300000210191016841F65C6401914068C2F269
:105640000004019001982046FFF728FA41F6003047
:10565000C2F20000006840F2902540680121C0F5C8
:10566000807241F6A860C2F20000C2F2000580F824
:1056700004112946C0F80021FAF7D3FD28464FF45B
:105680008071FAF7E7FD204629464FF4807202B098
:10569000BDE8B040FFF7FABEB0B5044690F841004F
:1056A00020281CBF0220B0BD00294FF0010056D0B9
:1056B000002A134608BFB0BD4FF0000C2120216224
:1056C000A384E384C4F844C084F84100A06B47F28B
:1056D000F14E47F2A1552268C0F6000EC0F6000553
:1056E000C0E90FE547F2FD15C0F600050432C0E938
:1056F000135CFCF7BBFC38B110206064202084F8F8
:1057000041000120B0BD00BF20686FF04001016082
:10571000206850E8050F216840F0800041E805024C
:10572000F2B1206850E8050F216840F0800041E8A0
:105730000502AAB1206850E8050F216840F08000FA
:1057400041E8050262B1206850E8050F216840F089
:10575000800041E80502002A4FF00000D8D1B0BD1A
:105760000020B0BD41F65C61C2F20001006809682A
:1057700088420FD041F61461C2F2000109688842E4
:1057800018BF704740F22E00C2F2000001210170E4
:10579000704700BF40F23000C2F2000001210170EA
:1057A0007047000070470000FEE7000080B54BF630
:1057B000BA2CA0F800C040F2400CC2F2000CBCF8B9
:1057C00001E04171A0F802E09CF803C059BA80F8EA
:1057D00004C08271A0F8071080BD000010B540F22F
:1057E0002804C2F2000461782078A278013961703F
:1057F000511E0428A1701BD003284DD0012820D1B0
:1058000041F20000C4F202000421FCF795FD0028DB
:1058100000F0868040F28800C2F200004178012941
:1058200011D1A17879B940F20111418019E000BF8E
:1058300041F20000C4F202000421FCF77DFD0128C2
:1058400001D10120207040F28800C2F2000080786F
:10585000002847D040F28800C2F20000C178012938
:1058600006D1012101703FA0FBF78CFC32E000BFA4
:105870000179012926D10221017032A0FBF782FCB7
:105880006F2001F045FA41F20000C4F20200082145
:105890000022FCF757FD1DE041F20000C4F20200B7
:1058A0000421FCF749FD012822D140F28800C2F210
:1058B00000000179012200292270C4D1417899B3F6
:1058C000053025E04179012904D10321017019A097
:1058D000CAE700BF40F28800C2F200000021C0F811
:1058E000011041712078013818BF012010BD00BFA0
:1058F00040F28800C2F2000001790029A3D141786A
:105900000029A0D1617800299DD1042104302170A3
:1059100040F28801C2F2000101228A70027099E708
:1059200046F2034020808EE7012141701420A070D0
:1059300089E700BF646F75626C6520636C69636B97
:105940002E0000006C6F6E672074696D6520636CBB
:1059500069636B2C20737769746368206F66662EA9
:105960000D0A000073696E676C6520636C69636B78
:105970002E0D0A0010B584B041F638100124002124
:10598000C2F2000042F20002C0F60074C4F201024A
:105990004FF48033C0E90A4101240391017680F875
:1059A0002010C46180F83010C0E90023C0E9021162
:1059B000C0E90414FBF75CFF002818BFFBF7A2FE48
:1059C0000D20CDE900040720029041F63810C2F204
:1059D00000006946FBF7A2FE002818BFFBF792FE05
:1059E00004B010BD80B582B0002043F630010190B4
:1059F000C4F202010A6842F400120A600A6802F462
:105A000000120192019A00900868002240F4800080
:105A100008600868002100F48000009000980C20C5
:105A2000FCF718FD0C20FCF703FD0E2000210022DE
:105A3000FCF710FD0E20FCF7FBFC0F2000210022DC
:105A4000FCF708FD0F20FCF7F3FC102000210022DA
:105A5000FCF700FD1020FCF7EBFC112000210022D8
:105A6000FCF7F8FC1120FCF7E3FC3B2000210022AE
:105A7000FCF7F0FC3B2002B0BDE88040FCF7D8BC4E
:105A80002DE9F04F87B0002443F63000CDE90544FE
:105A90000194C4F20200016840F2000941F01001D3
:105AA00001600168C4F2020901F01001019101993D
:105AB0000194016809F5805741F004010160016813
:105AC000002201F00401019101990194016841F063
:105AD00080010160016801F0800101910199019448
