:020000040800F2
:10000000102900209D010008B1710008C566000894
:10001000AD7100081908000811A0000800000000D8
:10002000000000000000000000000000B18B00088C
:10003000050A00080000000021720008518D000828
:10004000B7010008B7010008B7010008B7010008B0
:10005000B7010008B7010008B7010008B7010008A0
:10006000B7010008B7010008210A0008B70100081D
:100070001D080008B70100082D0800083D08000809
:10008000B70100084D080008B7010008B7010008D3
:10009000B7010008B7010008B7010008B701000860
:1000A000B7010008B7010008B7010008B701000850
:1000B000298E0008B7010008398E0008B701000832
:1000C000B7010008B7010008B7010008B701000830
:1000D00095880008B7010008E59F0008F59F000813
:1000E000B7010008B7010008B7010008B701000810
:1000F000B7010008B7010008B7010008B701000800
:10010000B7010008F1720008B7010008B701000844
:10011000B7010008B7010008498E0008B7010008C0
:10012000B7010008B7010008B70100085D08000822
:10013000B7010008B7010008B7010008B7010008BF
:10014000B7010008B7010008B7010008B7010008AF
:10015000B7010008B7010008B7010008B70100089F
:10016000B7010008B7010008B7010008B70100088F
:10017000B7010008B7010008B7010008000000003F
:10018000B7010008B7010008DFF80CD000F054FAFE
:100190000048004719B2000810290020064880478F
:1001A00006480047FEE7FEE7FEE7FEE7FEE7FEE75C
:1001B000FEE7FEE7FEE7FEE7158E0008890100086E
:1001C0002DE9F05F0546002092469B46884606468C
:1001D000814640241BE0284641464746224600F01F
:1001E000FFF853465A46C01A914110D3114618469B
:1001F000224600F0E6F82D1A67EB01084F4622462A
:100200000120002100F0DDF817EB00094E41201E0F
:10021000A4F10104DFDC484631462A464346BDE8E6
:10022000F09F40EA01039B0703D009E008C9121FB1
:1002300008C0042AFAD203E011F8013B00F8013BA0
:10024000521EF9D27047D2B201E000F8012B491ECC
:10025000FBD270470022F6E710B513460A46044663
:100260001946FFF7F0FF204610BD30B504460020C8
:10027000034600E05B1C934203D2E05CCD5C401B74
:10028000F8D030BD2DE9F04D81EA030404F0004BB5
:1002900021F0004514464FF0000A23F0004150EAD7
:1002A000050220D054EA01021DD0C5F30A570246C8
:1002B000C5F31303C1F31300C1F30A5640F48015CC
:1002C00043F48013A7EB0608101BD64608F2FD384E
:1002D00073EB050002D308F1010801E092185B41BD
:1002E000B8F1000F03DA00200146BDE8F08D0020D0
:1002F0004FF48011064684460EE0171B73EB05078A
:1003000005D3121B63EB050306434CEA010C4908B5
:100310004FEA300092185B4150EA0107EDD152EAF2
:10032000030012D082EA040083EA0501084305D0E5
:10033000101BAB4106D20122002306E000224FF041
:10034000004302E06FF0010253101AEB06004CEB81
:10035000085110EB0A0041EB0B01BDE8F04D00F035
:100360004FB80EB5C10F80EAE0700844CA070021FB
:1003700040F233438DE80E000A460B4600F04FF87A
:1003800003B000BD70B5C1F30A5201F0004500246E
:10039000C1F3130140F2FF3341F480119A4201DAB4
:1003A000002070BD40F233439A42A2F2334203DC94
:1003B000524200F015F800E090402C43F1D040424A
:1003C00070BD202A04DB203A00FA02F100207047B9
:1003D0009140C2F1200320FA03F319439040704783
:1003E000202A04DB203A21FA02F00021704721FA8A
:1003F00002F3D040C2F120029140084319467047F1
:1004000010B5141E73F1000408DA401C41F100011C
:1004100092185B411A4301D120F0010010BD2DE973
:10042000F04D92469B4611B1B1FA81F202E0B0FA6A
:1004300080F220329046FFF7C4FF04460F4640EAA0
:100440000A0041EA0B0153465A46084313D01146AD
:1004500053EA010019D0C8F140025046FFF7C0FF2F
:1004600005460E46504659464246FFF7AAFF084346
:1004700005D0012004E020463946BDE8F08D00207B
:10048000054346EAE0762C4337430A986305E40ABD
:10049000A0EB08000022FD0A44EA47540A3002D5C6
:1004A00000200146E9E7010510196941DDE9084529
:1004B00000196941BDE8F04DA2E72DE9FE4F8046E5
:1004C00081EA0300C00F0C46009021F0004123F0A8
:1004D0000045B8EB0200A94105D2404621469046AE
:1004E0001C460B46024623F00040104347D0270D20
:1004F000C7F30A00C3F30A510290401A0190402842
:100500006BDAC3F3130040F4801B0098924620B1CD
:100510000023D2EB030A63EB0B0B01985946C0F1A1
:1005200040025046FFF74DFF06460D4650465946DD
:10053000019A00F099F810EB08006141002487EA65
:10054000115284EAE7731A4340D0009A62B3019AC9
:10055000012A4FEA075215DC001B61EB02014FF044
:10056000004202EA0752CDE90042001C41F5801129
:1005700032462B46FFF753FF03B0BDE8F08F4046ED
:100580002146F9E7001B61EB0201001C41F58013D5
:1005900000185B412018A2F5001747EB030140EA61
:1005A000D570B6196D4111E06D084FEA360645EA7F
:1005B000C0754FEA0752001B61EB0201001C41F5B8
:1005C000801149084FEA30000019514132462B464C
:1005D00003B0BDE8F04FFFF713BF009801224000C1
:1005E0000023D0EB020263EBE073009821464FEA50
:1005F000E074B8EB000061EB0401E9E783F000432D
:100600005BE781F0004158E730B5041E71F100044A
:1006100004DB4FF00044404264EB0101141E73F10F
:10062000000405DB1C464FF00043524263EB040319
:10063000994208BF904230BD1CB509480090094856
:1006400001900546009C06E0E06840F0010394E854
:10065000070098471034AC42F6D3FFF799FD00002D
:10066000DCDB0008FCDB0008202A06DBCB17203A85
:1006700041FA02F043EAE07306E041FA02F3D040A7
:10068000C2F12002914008431946704782B00190A0
:1006900042F20030C4F2010000900099486820F452
:1006A00040304860019842680099486810434860AB
:1006B00001980168486820F48070486001980168DA
:1006C0000269486840EA0220486001980168486869
:1006D00020F04070486001980168826848681043C3
:1006E000486001980168886820F40060886001987B
:1006F0000168C2688868104388600198806A012197
:10070000C0F60071884219D0FFE701980168886837
:1007100020F07060886001980168826A88681043E0
:10072000886001980168886820F0405088600198CE
:100730000168C26A8868104388600CE0019801680B
:10074000886820F07060886001980168886820F0EF
:1007500040508860FFE701980168886820F0020037
:1007600088600198027E0168886840EA42008860DB
:10077000019890F82000C8B1FFE701980168486827
:1007800040F40060486001980168486820F46040C7
:10079000486001980168426A4EF20000CFF6FF708F
:1007A00000EB423248681043486006E00198016857
:1007B000486820F400604860FFE701980168C86A53
:1007C00020F47000C86201980168C2690020CFF669
:1007D000F07000EB0252C86A1043C86201980168C9
:1007E000886820F400708860019890F830200168D3
:1007F000886840EA4220886001980168886820F48F
:1008000080608860019801684269886840EA8220B7
:10081000886002B070470000FFE7FEE780B542F253
:100820005410C2F2000000F027FD80BD80B542F2F6
:10083000B410C2F2000000F01FFD80BD80B542F28E
:100840009400C2F2000000F017FD80BD80B542F2B6
:10085000F400C2F2000000F00FFD80BD80B542F24E
:100860003400C2F2000000F007FD80BD82B00190AC
:100870000198007810384AF6AB21CAF6AA21A0FBED
:1008800001100009009000994CF65E50C0F600007F
:10089000405C0199C8650098042807D3FFE70199D7
:1008A0000868042262F30900886506E00199086877
:1008B00040F2FF3290438865FFE70198806D02B0F7
:1008C0007047000086B0059000208DF81300059851
:1008D000806A03900598806910BBFFE70398029037
:1008E00003281BD80299DFE801F0020D02180598D1
:1008F00090F82F00C00720B1FFE701208DF813000A
:10090000FFE70CE00598C06AB0F1C07F04D1FFE7B3
:1009100001208DF81300FFE701E000E0FFE745E06C
:1009200005988069B0F5005F25D1FFE70398019035
:1009300003281ED80199DFE801F002060211012008
:100940008DF8130016E0059890F82F00C00720B12D
:10095000FFE701208DF81300FFE70BE00598C06A60
:10096000B0F1C07F04D1FFE701208DF81300FFE74D
:1009700000E0FFE719E003980090032804D3FFE7A5
:100980000098032804D00EE001208DF813000BE03E
:10099000059890F82F00C00720B1FFE701208DF8DF
:1009A0001300FFE700E0FFE7FFE7FFE79DF8130014
:1009B00006B0704784B003900291019200930398AF
:1009C0000168086820F4802008600098039909688D
:1009D000486003988068402809D1FFE7019803998F
:1009E00009688860029803990968C86008E002985D
:1009F000039909688860019803990968C860FFE74E
:100A000004B070477047000081B0009001B070479B
:100A100080B582B00190019809F064FF02B080BDFA
:100A200080B5102000F004FF80BD000080B542F2C8
:100A30002040C2F2000004F04BF842F29030C2F2C3
:100A4000000004F045F870200BF02AFCFFE74FF49B
:100A5000FA7008F0DFF841F20000C4F2020004214D
:100A600001F0DEF810B9FFE772B6FFE7EFE700002C
:100A700085B00390029100200190FFE7039890F861
:100A80003C00012804D1FFE702208DF81300F7E0B5
:100A90000399012081F83C00FFE7FFE70298006816
:100AA0000A281CD3FFE70298008800EB4000A0F161
:100AB0001E01072000FA01F203980168C8689043FC
:100AC000C86002998868098801EB41011E3900FA63
:100AD00001F203980168C8681043C86018E00298E2
:100AE000008800EB4001072000FA01F2039801683A
:100AF00008699043086102998868098801EB4101FF
:100B000000FA01F203980168086910430861FFE7E1
:100B10000298406806281BD8FFE70298406800EB5F
:100B20008000411F1F2000FA01F203980168486B02
:100B30009043486302990888496801EB81010539AF
:100B400000FA01F203980168486B104348633DE0E6
:100B5000029840680C281CD8FFE70298406800EB18
:100B60008000A0F123011F2000FA01F20398016820
:100B7000086B9043086302990888496801EB81017A
:100B8000233900FA01F203980168086B10430863E7
:100B90001BE00298406800EB8000A0F141011F209B
:100BA00000FA01F203980168C86A9043C86202998A
:100BB0000888496801EB8101413900FA01F2039884
:100BC0000168C86A1043C862FFE7FFE742F20030DD
:100BD000C4F2010000900398006842F20001C4F2E0
:100BE000010188420BD1FFE702980068122806D164
:100BF000FFE70099486840F480004860FFE70398E9
:100C0000006842F20001C4F2010188422ED1FFE7E0
:100C100002980068102805D0FFE7029800681128A4
:100C200024D1FFE70099486840F40000486002982A
:100C30000068102819D1FFE740F20400C2F200005A
:100C400000684DF68361C4F21B31A0FB0110800CDB
:100C500000EB800040000190FFE7019820B1FFE722
:100C6000019801380190F8E7FFE7FFE7FFE70399F4
:100C7000002081F83C00FFE700208DF81300FFE71B
:100C80009DF8130005B0704781B000900098006C8B
:100C900001B0704781B0009000980068C06C01B04E
:100CA0007047000080B584B0029000208DF80700E6
:100CB000029820B9FFE701208DF80F0042E002986A
:100CC000806A0121C0F60071884201D0FFE7FFE78A
:100CD0000298006C50B9FFE7029800F037F80299CB
:100CE00000204864029981F83C00FFE70298006CFC
:100CF000C006002817D4FFE70298006C40F00200FD
:100D000020F48850029908640298FFF7BFFC02990A
:100D1000002048640298006C40F0010020F00200BE
:100D20000299086403E001208DF80700FFE7FFE760
:100D30000299002081F83C00FFE79DF807008DF83C
:100D40000F00FFE79DF80F0004B080BD80B588B0AC
:100D50000790002006900590049003900290079859
:100D6000006842F20001C4F20101884230D1FFE77D
:100D7000FFE70020019043F64400C4F2020001683E
:100D800041F480710160006800F480700190019866
:100D9000FFE7FFE70020009043F63000C4F20200B6
:100DA000016841F004010160006800F00400009057
:100DB0000098FFE708200290032003900020049091
:100DC00040F60000C4F2020002A900F04DFDFFE76A
:100DD00008B080BD80B584B00290019100200090E1
:100DE0000298006880684005002816D5FFE7029841
:100DF00000688068C00500280FD5FFE70299086CDD
:100E000040F020000864FFE70299002081F83C00D0
:100E1000FFE701208DF80F006DE000F031FF00903A
:100E2000FFE702980068006800F00200022829D05D
:100E3000FFE70198013020B3FFE7019840B1FFE7D9
:100E400000F01EFF0099401A0199884218D9FFE767
:100E500002980068006800F0020002280FD0FFE747
:100E60000299086C40F004000864FFE70299002032
:100E700081F83C00FFE703208DF80F003BE0FFE71F
:100E8000FFE7CEE7029801686FF012000860029950
:100E9000086C40F40070086402980068806810F0E4
:100EA000405F24D1FFE70298007E00BBFFE7029875
:100EB0000068C06A10F4700F07D0FFE7029800685E
:100EC00080684005002812D4FFE70299086C20F4DE
:100ED000807008640298006CC004002806D4FFE704
:100EE0000299086C40F001000864FFE7FFE700206A
:100EF0008DF80F00FFE79DF80F0004B080BD0000E3
:100F000084B0029000200190FFE7029890F83C0026
:100F1000012804D1FFE702208DF80F00D4E00299E8
:100F2000012081F83C00FFE7FFE702980068806835
:100F3000C007F0B9FFE702980168886840F0010037
:100F4000886040F20400C2F2000000684DF6836140
:100F5000C4F21B31A0FB0110800C00EB400001909B
:100F6000FFE7019820B1FFE7019801380190F8E709
:100F7000FFE7029800688068C007002800F09580AD
:100F8000FFE70298006C40F4807040F201618843F2
:100F9000029908640298006840684005002809D555
:100FA000FFE70298006C40F4805020F40050029952
:100FB0000864FFE70298006CC004002806D5FFE72C
:100FC0000299486C20F00600486403E00299002072
:100FD0004864FFE7FFE70299002081F83C00FFE743
:100FE00042F20030C4F201000090029801686FF0F4
:100FF0002200086000984068C006E8BBFFE702983E
:10100000006842F20001C4F20101884224D0FFE7E7
:101010000298006842F20011C4F20101884208D12E
:10102000FFE742F20430C4F201000068C00698B144
:10103000FFE70298006842F20021C4F201018842F1
:1010400019D1FFE742F20430C4F20100006800F059
:101050001F000F280FD8FFE702980068806810F083
:10106000405F07D1FFE702980168886840F0804040
:101070008860FFE7FFE717E00298006842F200018E
:10108000C4F2010188420ED1FFE70298006880682F
:1010900010F0405F07D1FFE702980168886840F0D0
:1010A00080408860FFE7FFE70AE00299086C40F0A3
:1010B000100008640299486C40F001004864FFE7A2
:1010C00000208DF80F00FFE79DF80F0004B0704777
:1010D00082B00090FFE7009890F83C00012804D10E
:1010E000FFE702208DF8070024E00099012081F835
:1010F0003C00FFE7FFE700980168886820F00100E6
:101100008860009800688068C00748B9FFE70098C9
:10111000006C40F0010020F4885000990864FFE75B
:10112000FFE70099002081F83C00FFE700208DF8E0
:101130000700FFE79DF8070002B0704780B584B054
:1011400002900298806D019000F09AFD0090029844
:1011500090F8350002280DD0FFE7029980204865FD
:10116000FFE70299002081F83400FFE701208DF8A5
:101170000F0055E002980168086820F0160008602A
:1011800002980168486920F0800048610298006C6C
:1011900020B9FFE70298806C38B1FFE70298016838
:1011A000086820F008000860FFE7029801680868F6
:1011B00020F001000860FFE7029800680068C0079F
:1011C000C8B1FFE700F05CFD0099401A062811D372
:1011D000FFE70299202048650299032081F8350035
:1011E000FFE70299002081F83400FFE703208DF823
:1011F0000F0015E0E0E70298C16D3F20884001999B
:1012000088600299012081F83500FFE702990020EB
:1012100081F83400FFE7FFE700208DF80F00FFE7BB
:101220009DF80F0004B080BD82B00090009890F847
:101230003500022807D0FFE700998020486501208B
:101240008DF807000EE00099052081F83500009820
:101250000168086820F001000860FFE700208DF8B1
:101260000700FFE79DF8070002B0704781B00090CB
:101270000098406D01B0704780B586B005900020A1
:10128000039040F20400C2F20000006848F2B51179
:10129000C1F64E31A0FB0110800A02900598806DC6
:1012A000019001980068049004980599C96DC840A0
:1012B000000700281AD5FFE7059800680068400776
:1012C000002812D5FFE705980168086820F004009F
:1012D00008600598C16D08208840019988600599CB
:1012E000486D40F001004865FFE7FFE70498059965
:1012F000C96DC840C007A0B1FFE705980068406904
:10130000000600280CD5FFE70598C16D0120884034
:10131000019988600599486D40F002004865FFE733
:10132000FFE704980599C96DC8404007002814D507
:10133000FFE7059800680068800700280CD5FFE7E4
:101340000598C16D04208840019988600599486D11
:1013500040F004004865FFE7FFE704980599C96D70
:10136000C840C006002847D5FFE705980068006818
:10137000000700283FD5FFE70598C16D1020884081
:1013800001998860059800680068400300281AD514
:10139000FFE70598006800680003002809D4FFE70C
:1013A0000598006C20B1FFE70598016C8847FFE7BE
:1013B00008E00598806C20B1FFE70598816C8847AC
:1013C000FFE7FFE716E0059800680068C005002801
:1013D00007D4FFE705980168086820F00800086056
:1013E000FFE70598006C20B1FFE70598016C88477E
:1013F000FFE7FFE7FFE7FFE704980599C96DC840DD
:101400008006002840F18D80FFE70598006800689D
:10141000C006002840F18480FFE70598C16D2020B8
:10142000884001998860059890F83500052834D1E6
:10143000FFE705980168086820F016000860059825
:101440000168486920F0800048610598006C20B967
:10145000FFE70598806C38B1FFE7059801680868D8
:1014600020F008000860FFE70598C16D3F20884024
:10147000019988600599012081F83500FFE70599F9
:10148000002081F83400FFE70598006D20B1FFE7E8
:101490000598016D8847FFE77BE0059800680068C4
:1014A000400300281AD5FFE705980068006800038C
:1014B000002809D4FFE70598406C20B1FFE70598A4
:1014C000416C8847FFE708E00598C06B20B1FFE753
:1014D0000598C16B8847FFE7FFE720E005980068A3
:1014E0000068C005002811D4FFE705980168086866
:1014F00020F0100008600599012081F83500FFE711
:101500000599002081F83400FFE7FFE70598C06BDC
:1015100020B1FFE70598C16B8847FFE7FFE7FFE7CA
:10152000FFE70598406DA0B3FFE70598406DC00741
:1015300030B3FFE70599052081F83500059801686B
:10154000086820F001000860FFE70398013003906D
:101550000299884201D9FFE707E0FFE70598006894
:101560000068C0070028F0D1FFE70599012081F845
:101570003500FFE70599002081F83400FFE7FFE719
:101580000598C06C20B1FFE70598C16C8847FFE75C
:10159000FFE706B080BD000080B586B00490002053
:1015A000039000F06DFB0290049820B9FFE7012042
:1015B0008DF81700A3E00498406A08B1FFE7FFE741
:1015C0000499022081F83500FFE70499002081F892
:1015D0003400FFE704980168086820F00100086003
:1015E000FFE7049800680068C00790B1FFE700F0CB
:1015F00047FB0299401A06280AD3FFE704992020E6
:1016000048650499032081F835008DF8170076E0CD
:10161000E7E70498006800680390039848F23F01E8
:10162000CFF2100108400390049900914868D1F866
:1016300008C0CB680A6940EA0C00184310434A69A5
:1016400010438A691043CA691043096A0143039829
:10165000084303900498406A042808D1FFE70499DE
:10166000C86A096B0143039808430390FFE7039896
:101670000499096808600498006840690390039819
:1016800020F0070003900498416A039808430390F0
:101690000498406A04281AD1FFE70498816A0398E5
:1016A000084303900498C06A80B1FFE70498FFF7ED
:1016B00009F950B1FFE704994020486504990120D9
:1016C00081F835008DF8170019E0FFE7FFE7039870
:1016D0000499096848610498FFF7C8F801900498D4
:1016E000C16D3F20884001998860049900204865B9
:1016F000049A012182F835108DF81700FFE79DF854
:10170000170006B080BD000080B588B00690059136
:101710000492039300208DF80B000698806D0190D1
:10172000FFE7069890F83400012804D1FFE7022073
:101730008DF81F0045E00699012081F83400FFE78D
:10174000FFE7069890F8350001282BD1FFE70699AE
:10175000022081F835000699002048650698059911
:10176000049A039BFFF726F90698C16D3F20884035
:101770000199886006980168086840F016000860C2
:101780000698006C38B1FFE706980168086840F0D9
:1017900008000860FFE706980168086840F001004B
:1017A000086009E0FFE70699002081F83400FFE7B0
:1017B00002208DF80B00FFE79DF80B008DF81F004D
:1017C000FFE79DF81F0008B080BD000080B584B021
:1017D000039000F055FA02900398019001980130AF
:1017E00048B1FFE740F20E00C2F200000178019814
:1017F00008440190FFE7FFE700F042FA0299401A1F
:101800000199884201D2FFE7F6E704B080BD0000ED
:1018100080B582B0ADF80600BDF80600102805D1ED
:10182000FFE7BDF8060009F06DFEFFE702B080BDDE
:1018300080B582B0ADF8060043F61440C4F2010052
:101840000068BDF8061008420CD0FFE7BDF806009E
:1018500043F61441C4F201010860BDF80600FFF729
:10186000D7FFFFE702B080BD8EB00D900C91002035
:101870000A90099008900B90FFE70B980F2800F250
:10188000CC81FFE70B99012088400A900C980068F2
:101890000A990840099009980A99884240F0B8814D
:1018A000FFE70C98406800F00300012807D0FFE72D
:1018B0000C98406800F0030002282FD1FFE70D9834
:1018C000806808900B984100032000FA01F1089805
:1018D000884308900C98C0680B99490000FA01F100
:1018E00008980843089008980D9988600D984068FA
:1018F00008900B99012000FA01F10898884308909C
:101900000C984068C0F300100B9900FA01F1089898
:101910000843089008980D994860FFE70C984068C4
:1019200000F00300032818D0FFE70D98C068089066
:101930000B984100032000FA01F1089888430890B1
:101940000C9880680B99490000FA01F10898084347
:10195000089008980D99C860FFE70C98406800F05F
:101960000300022826D1FFE70D980B996FF00302C0
:1019700002EA51010844006A08900B9800F0070041
:1019800081000F2000FA01F10898884308900C9814
:1019900000690B9901F00701890000FA01F108982C
:1019A0000843089008980D990B9B02EA53021144D2
:1019B0000862FFE70D98006808900B98410003202B
:1019C00000FA01F10898884308900C98406800F0EC
:1019D00003000B99490000FA01F1089808430890A8
:1019E00008980D9908600C9880798007002800F00D
:1019F0000E81FFE7FFE70020079043F64400C4F2A2
:101A00000200016841F480410160006800F48040F8
:101A100007900798FFE70B9820F0030043F60801B2
:101A2000C4F20101405808900B9800F003008100B7
:101A30000F2000FA01F10898884308900D980021C2
:101A4000C4F20201884203D1FFE7002006905EE065
:101A50000D9840F20041C4F20201884203D1FFE731
:101A60000120059050E00D9840F60001C4F20201FB
:101A7000884203D1FFE70220049042E00D9840F62F
:101A80000041C4F20201884203D1FFE70320039022
:101A900034E00D9841F20001C4F20201884203D102
:101AA000FFE70420029026E00D9841F20041C4F2C5
:101AB0000201884203D1FFE70520019018E00D984C
:101AC00041F60001C4F20201884203D1FFE706207B
:101AD00000900AE00D9941F60042C4F2020208208B
:101AE000914208BF07200090FFE700980190FFE7B0
:101AF00001980290FFE702980390FFE70398049093
:101B0000FFE704980590FFE705980690FFE7069821
:101B1000C0B20B9901F00301890000FA01F10898A5
:101B20000843089008980B9921F0030143F6080236
:101B3000C4F20102885043F60840C4F20100006874
:101B4000089009990898884308900C988079C006F5
:101B5000002805D5FFE70999089808430890FFE792
:101B6000089843F60841C4F20101086043F60C40AE
:101B7000C4F2010000680890099908988843089009
:101B80000C9880798006002805D5FFE70999089808
:101B900008430890FFE7089843F60C41C4F201019E
:101BA000086043F60440C4F20100006808900999F7
:101BB0000898884308900C9880798007002805D5FC
:101BC000FFE70999089808430890FFE7089843F64B
:101BD0000441C4F20101086043F60040C4F2010070
:101BE0000068089009990898884308900C988079B3
:101BF000C00728B1FFE70999089808430890FFE754
:101C0000089843F60041C4F201010860FFE7FFE7CE
:101C1000FFE70B9801300B902FE60EB070470000E5
:101C200082B00190ADF8021001980069BDF8021071
:101C3000084204D0FFE701208DF8010003E00020F6
:101C40008DF80100FFE79DF8010002B07047000029
:101C500082B00190ADF802108DF801209DF80100CE
:101C600028B1FFE7BDF802000199886105E0BDF8E1
:101C70000200000401998861FFE702B0704700008C
:101C800042F20C50C2F200000068704740F20E00B1
:101C9000C2F20000027842F20C51C2F20001086860
:101CA000104408607047000080B582B043F60041E0
:101CB000C4F20201086840F400700860086840F44B
:101CC00080600860086840F480700860032000F0BD
:101CD0008BF80020019000F005F800F03BF8019827
:101CE00002B080BD80B582B0009040F20400C2F224
:101CF0000000006840F20E01C2F200010A784FF4C1
:101D00007A71B1FBF2F1B0FBF1F002F069FC20B1A5
:101D1000FFE701208DF8070018E000980F280DD884
:101D2000FFE700994FF0FF30002200F043F80098E1
:101D300040F21001C2F20001086003E001208DF8BA
:101D4000070003E000208DF80700FFE79DF807007B
:101D500002B080BD82B0FFE70020019043F644004E
:101D6000C4F20200016841F480410160006800F49F
:101D7000804001900198FFE7FFE70020009043F6C4
:101D80004000C4F20200016841F080510160006827
:101D900000F0805000900098FFE702B0704700000C
:101DA00080B582B08DF807009DF9070008F032F980
:101DB00002B080BD80B586B08DF817000491039203
:101DC0000020029008F03EF902909DF91700019062
:101DD00002980499039A05F0EDF90146019808F07C
:101DE00039F906B080BD000080B582B0019001983D
:101DF00008F052F902B080BD80B584B00290019124
:101E0000029820B9FFE701208DF80F0021E1019829
:101E100043F60041C4F20201096801F0070188425B
:101E200012D9FFE7019943F60040C4F202000170A5
:101E3000006800F007000199884204D0FFE7012004
:101E40008DF80F0005E1FFE7029800788007002871
:101E50002AD5FFE7029800784007002809D5FFE758
:101E600043F60801C4F20201086840F4E05008603B
:101E7000FFE7029800780007002809D5FFE743F63E
:101E80000801C4F20201086840F460400860FFE7FE
:101E900043F60801C4F20201086820F0F000029A3B
:101EA000926810430860FFE702980078C007002896
:101EB0006ED0FFE702984068012811D1FFE743F692
:101EC0000000C4F20200006800F400310020B0EB12
:101ED000514F04D1FFE701208DF80F00B9E02CE04D
:101EE00002984068022805D0FFE70298406803285E
:101EF00011D1FFE743F60000C4F20200006800F0D1
:101F000000710020B0EB516F04D1FFE701208DF884
:101F10000F009EE010E043F60000C4F202000068EB
:101F200000F002010020B0EB510F04D1FFE70120C7
:101F30008DF80F008DE0FFE7FFE743F60801C4F2DC
:101F40000201086820F00300029A526810430860FA
:101F5000FFF796FE0090FFE743F60800C4F2020088
:101F6000006800F00C0002994968B0EB810F0ED0B8
:101F7000FFE7FFF785FE0099401A41F28931884258
:101F800004D3FFE703208DF80F0062E0E4E7FFE7EA
:101F9000019843F60041C4F20201096801F007010B
:101FA000884212D2FFE7019943F60040C4F20200D2
:101FB0000170006800F007000199884204D0FFE733
:101FC00001208DF80F0044E0FFE7029800784007F9
:101FD00000280CD5FFE743F60801C4F202010868A7
:101FE00020F4E050029AD26810430860FFE702989C
:101FF0000078000700280DD5FFE743F60801C4F27A
:102000000201086820F46040029A126940EAC200A6
:102010000860FFE700F04CF843F60801C4F2020143
:102020000968C9B20A094CF64651C0F60001895C3C
:10203000C84040F20401C2F20001086040F2100002
:10204000C2F200000068FFF74DFE00208DF80F007F
:10205000FFE79DF80F0004B080BD000040F20400CF
:10206000C2F200000068704780B5FFF7F7FF43F643
:102070000801C4F202010968C1F382224CF65651EC
:10208000C0F60001895CC84080BD000080B5FFF744
:10209000E5FF43F60801C4F20201096889B24A0B60
:1020A0004CF65651C0F60001895CC84080BD000066
:1020B00080B586B00020059004900390029043F60E
:1020C0000800C4F20200006800F00C000146019113
:1020D00040B1FFE7019804280AD0FFE701980828DB
:1020E0000CD04FE042F20040C0F2F40002904FE00A
:1020F00041F20020C0F27A00029049E043F6040069
:10210000C4F20200016801F03F010591006840023D
:10211000002813D5FFE743F60400C4F2020000686C
:10212000C0F3881041F20021C0F27A01A0FB010146
:10213000059A0023FEF744F8049012E043F60400E9
:10214000C4F202000068C0F3881042F20041C0F2FD
:10215000F401A0FB0101059A0023FEF731F8049079
:10216000FFE743F60400C4F20200006800F44031C7
:10217000022000EBD130039004980399B0FBF1F0FA
:10218000029005E042F20040C0F2F4000290FFE746
:10219000029806B080BD000080B586B00490049817
:1021A00020B9FFE701208DF8170050E3049800786C
:1021B000C007002800F0A580FFE743F60800C4F23E
:1021C0000200006800F00C00042813D0FFE743F67B
:1021D0000800C4F20200006800F00C0008281ED1BC
:1021E000FFE743F60400C4F2020000684002002842
:1021F00015D5FFE743F60000C4F20200006800F4C2
:1022000000310020B0EB514F08D0FFE70498406840
:1022100020B9FFE701208DF8170018E370E0FFE711
:1022200004984068B0F5803F09D1FFE743F600010C
:10223000C4F20201086840F48030086020E004988D
:102240004068B0F5A02F0DD1FFE743F60001C4F2BE
:102250000201086840F480200860086840F480307B
:1022600008600CE043F60001C4F20201086820F4A3
:1022700080300860086820F480200860FFE7FFE7EE
:10228000FFE704984068E8B1FFE7FFF7F9FC039027
:10229000FFE743F60000C4F20200006800F40031DA
:1022A0000020B0EB514F0CD1FFE7FFF7E9FC039999
:1022B000401A652804D3FFE703208DF81700C6E213
:1022C000E7E71CE0FFF7DCFC0390FFE743F60000C4
:1022D000C4F20200006800F400310020B0EB514F5E
:1022E0000CD0FFE7FFF7CCFC0399401A652804D314
:1022F000FFE703208DF81700A9E2E7E7FFE7FFE714
:10230000FFE7049800788007002840F19680FFE7F7
:1023100043F60800C4F20200006810F00C0F13D05E
:10232000FFE743F60800C4F20200006800F00C006A
:1023300008282CD1FFE743F60400C4F2020000682D
:102340004002002823D4FFE743F60000C4F2020055
:10235000006800F002010020B0EB510F09D0FFE748
:102360000498C068012804D0FFE701208DF8170009
:102370006DE243F60001C4F20201086820F0F800A3
:10238000049A126940EAC2000860FFE754E004982A
:10239000C06870B3FFE70021C4F247210120086044
:1023A000FFF76EFC0390FFE743F60000C4F2020063
:1023B000006800F002010020B0EB510F0CD1FFE7E4
:1023C000FFF75EFC0399401A032804D3FFE70320BC
:1023D0008DF817003BE2E7E743F60001C4F2020183
:1023E000086820F0F800049A126940EAC200086008
:1023F00021E00021C4F2472100200860FFF740FCE3
:102400000390FFE743F60000C4F20200006800F00A
:1024100002010020B0EB510F0CD0FFE7FFF730FCBA
:102420000399401A032804D3FFE703208DF817000F
:102430000DE2E7E7FFE7FFE7FFE704980078000712
:1024400000284BD5FFE70498406918B3FFE740F632
:102450008061C4F2472101200860FFF711FC03905E
:10246000FFE743F67400C4F20200006800F00201C6
:102470000020B0EB510F0CD1FFE7FFF701FC0399EF
:10248000401A032804D3FFE703208DF81700DEE18C
:10249000E7E722E040F68061C4F2472100200860AF
:1024A000FFF7EEFB0390FFE743F67400C4F202006F
:1024B000006800F002010020B0EB510F0CD0FFE7E4
:1024C000FFF7DEFB0399401A032804D3FFE703203C
:1024D0008DF81700BBE1E7E7FFE7FFE70498007816
:1024E0004007002840F1CE80FFE700208DF807006C
:1024F00043F64000C4F202000068C000002815D472
:10250000FFE7FFE70020009043F64000C4F202001E
:10251000016841F080510160006800F08050009037
:102520000098FFE701208DF80700FFE747F2000061
:10253000C4F200000068C005002822D4FFE747F27B
:102540000001C4F20001086840F480700860FFF7E1
:1025500097FB0390FFE747F20000C4F20000006819
:10256000C00500280CD4FFE7FFF78AFB0399401A47
:10257000032804D3FFE703208DF8170067E1EAE79B
:10258000FFE7FFE704988068012809D1FFE743F6D9
:102590007001C4F20201086840F0010008601FE009
:1025A0000498806805280DD1FFE743F67001C4F256
:1025B0000201086840F004000860086840F001006B
:1025C00008600CE043F67001C4F20201086820F0D4
:1025D00001000860086820F004000860FFE7FFE7DA
:1025E000FFE704988068F8B1FFE7FFF749FB039025
:1025F000FFE743F67000C4F20200006800F0020139
:102600000020B0EB510F0ED1FFE7FFF739FB039924
:10261000401A41F28931884204D3FFE703208DF844
:10262000170014E1E5E71EE0FFF72AFB0390FFE740
:1026300043F67000C4F20200006800F002010020BE
:10264000B0EB510F0ED0FFE7FFF71AFB0399401ACA
:1026500041F28931884204D3FFE703208DF8170047
:10266000F5E0E5E7FFE79DF80700012809D1FFE75E
:1026700043F64001C4F20201086820F0805008606F
:10268000FFE7FFE704988069002800F0DC80FFE79F
:1026900043F60800C4F20200006800F00C000828AD
:1026A00000F08580FFE70498806902285CD1FFE78D
:1026B0006021C4F2472100200860FFF7E1FA03908F
:1026C000FFE743F60000C4F20200006800F000716A
:1026D0000020B0EB516F0CD0FFE7FFF7D1FA039960
:1026E000401A032804D3FFE703208DF81700AEE05B
:1026F000E7E70499C869D1F820C04B6A8A6A40EAC2
:102700000C0040EA8310D2034FF6FF739A43A2F500
:1027100080321043C96A40EA016043F60401C4F202
:10272000020108606021C4F2472101200860FFF720
:10273000A7FA0390FFE743F60000C4F20200006826
:1027400000F000710020B0EB516F0CD1FFE7FFF7F4
:1027500097FA0399401A032804D3FFE703208DF862
:10276000170074E0E7E721E06021C4F24721002070
:102770000860FFF785FA0390FFE743F60000C4F214
:102780000200006800F000710020B0EB516F0CD027
:10279000FFE7FFF775FA0399401A032804D3FFE710
:1027A00003208DF8170052E0E7E7FFE74AE00498BE
:1027B0008069012804D1FFE701208DF8170046E069
:1027C00043F60400C4F20200006802900498806995
:1027D000012831D0FFE7029800F480000499C9690C
:1027E000884229D1FFE7029800F03F000499096A66
:1027F000884221D1FFE7029847F6C071084004994A
:10280000496AB0EB811F17D1FFE7029800F440300E
:102810000499896AC9034FF6FF729143A1F580318B
:10282000884209D1FFE7029800F070600499C96AF4
:10283000B0EB016F04D0FFE701208DF8170006E030
:10284000FFE7FFE7FFE700208DF81700FFE79DF89F
:10285000170006B080BD000081B0009001B0704745
:10286000B0B58EB00D900C9100208DF813000D992D
:10287000032081F834000D98406C032830D0FFE726
:102880000C98B0F5805F06D1FFE70D99886B40F09A
:102890008050886323E00C98B0F5006F0AD1FFE701
:1028A0000D9805F05DFF0590059A0D99886B104312
:1028B000886313E00C9850B9FFE70D9805F00AFF04
:1028C0000590059A0D99886B1043886305E00D9972
:1028D000886B40F000608863FFE7FFE7FFE705E0F3
:1028E0000D99886B40F080508863FFE70D98806BEE
:1028F00070B1FFE70D98016840F2FF50C0F2400050
:1029000088630D99012081F834008DF8130023E0CD
:102910000D98406806900D98806807900D98C068E3
:1029200008900C9809900D9840690A900D9880695C
:102930000B900D9800680699079A089BDDF824C053
:102940000A9C0B9DEE46CEF80850CEF80440CEF817
:1029500000C004F0D5FCFFE70D9800684FF400714B
:1029600004F076FD0590059880B1FFE70D980168A9
:1029700040F2FF50C0F240008863059A0D99886BC1
:102980001043886301208DF81300FFE70D990120A3
:1029900081F834009DF813000EB0B0BD80B588B04A
:1029A000069005910492059802900498019006986B
:1029B00090F83400012840F0C880FFE70699002015
:1029C000886301980299884209D2FFE70699886BCB
:1029D00040F00060886301208DF81F00B9E0019885
:1029E0000699C96D884209D9FFE70699886B40F0BE
:1029F0000070886301208DF81F00AAE0069903206B
:102A000081F83400069890F84C008006002813D412
:102A1000FFE70698016840F2FF50C0F2400088636B
:102A20000699886B40F0806088630699012081F8E0
:102A300034008DF81F008CE006980068002104F037
:102A40004BFC8001002813D5FFE70698016840F28F
:102A5000FF50C0F2400088630699886B40F4006024
:102A600088630699012081F834008DF81F0070E01A
:102A70000698406C012807D0FFE7029840020290B8
:102A8000019840020190FFE70698406C032839D076
:102A9000FFE706980068029904F0BCFD03900398D4
:102AA00098B1FFE70698016840F2FF50C0F240007D
:102AB0008863039A0699886B1043886306990120FE
:102AC00081F834008DF81F0043E0069800680199F2
:102AD00004F082FD0390039898B1FFE7069801681F
:102AE00040F2FF50C0F240008863039A0699886B59
:102AF000104388630699012081F834008DF81F0087
:102B000027E0FFE70698006804F0DEFC03900398D6
:102B100098B1FFE70698016840F2FF50C0F240000C
:102B20008863039A0699886B10438863069901208D
:102B300081F834008DF81F000BE00699012081F820
:102B4000340000208DF81F0003E002208DF81F00E4
:102B5000FFE79DF81F0008B080BD000081B0009025
:102B600001B0704782B001900091019890F8770011
:102B7000009908700198406F000A009948800199F7
:102B8000486F896F000640EA11200099486001985B
:102B9000806F00990872019890F87F000099487240
:102BA0000198C16F90F8830040EA01200099C86045
:102BB0000198D0F88000C0F3035000990874019880
:102BC000D0F88000C0F30B2000994882019890F85B
:102BD0008000400800990875009901204875002080
:102BE00002B0704783B0019000910198406E800F51
:102BF000009908700198406EC0F383600099487096
:102C00000198406EC0F30160009988700198B0F897
:102C100066000099C8700198406E000A009908711A
:102C20000198406E009948710198806E000D0099DE
:102C3000C8800198806EC0F3034000990872019823
:102C4000B0F86800C00B009948720198806EC0F31C
:102C50008030009988720198806EC0F340300099EE
:102C6000C8720198806EC0F3003000990873009913
:102C7000002048730198406C00284BD1FFE7019970
:102C8000886EC96E6FF39F20800040EA91700099B2
:102C900008610198C06EC0F3C26000990875019880
:102CA000C06EC0F30260009948750198C06EC0F311
:102CB0004250009988750198C06EC0F38240009917
:102CC000C8750198C06EC0F3C230009908760098AC
:102CD00000690130019948650098007E00F0070006
:102CE000811C012000FA01F3019A516D594351658D
:102CF0000099097A01F00F018840019988650199CE
:102D0000486D8A6D520A5043C86501994FF40070AE
:102D1000086635E00198406C01281DD1FFE7019855
:102D2000816E01F03F01B0F86E0040EA0140009969
:102D30000861009801694FF4806000EB81200199DF
:102D400048650199486DC86501994FF40070886520
:102D50000199886D086612E00198016840F2FF5001
:102D6000C0F2400088630199886B40F0805088630E
:102D70000199012081F834008DF80B0073E0FFE722
:102D80000198C06EC0F38030009948760198C06EFB
:102D9000C0F3C610009988760198C06E00F07F00DD
:102DA0000099C8760198006FC00F009908770198C4
:102DB000006FC0F34170009948770198006FC0F32D
:102DC0008260009988770198006FC0F38350009962
:102DD000C8770198006FC0F34050009981F8200037
:102DE0000099002081F821000199096FC1F3004189
:102DF000009A82F822100199B1F87010C90B009A5C
:102E000082F823100199096FC1F38031009A82F88A
:102E100024100199096FC1F34031009A82F82510FE
:102E20000199096FC1F30031009A82F826100199C7
:102E3000096FC1F38121009A82F827100199096F67
:102E4000C1F30121009A82F82810019991F87010BD
:102E50004908009A82F82910009A012182F82A1064
:102E60008DF80B00FFE79DF80B0003B070470000E2
:102E700080B584B00390002000900398694605F067
:102E800001FC0190019830B1FFE7019A0399886B2A
:102E900010438863FFE70098C0F343200290029834
:102EA00004B080BD80B594B01390129100208DF8CD
:102EB0000300139802A905F00DFB0190019898B149
:102EC000FFE71398016840F2FF50C0F240008863AA
:102ED000019A1399886B104388631399012081F834
:102EE00034008DF803003BE09DF80800800912993A
:102EF00008700298C0F3401012994870029901F4CA
:102F00007F00000A40EA1160129948800399080680
:102F100001F47F4240EA022001F47F0240EA1220DD
:102F200040EA116012994860049812990872049856
:102F3000000A129948720498C0F3035012998872DB
:102F4000BDF8130040BA12998881BDF81400800AB8
:102F5000129988730598C0F301201299C873FFE78E
:102F6000139800684FF4007104F072FA0190019810
:102F700088B1FFE71398016840F2FF50C0F24000AB
:102F800088630198139988631399012081F83400AC
:102F90008DF80300FFE79DF8030014B080BD00002A
:102FA00080B584B003900398006B0190039800688B
:102FB000406B81B20020B0EBD13F0AD0FFE79DF813
:102FC00004000007002804D5FFE7039805F034FA51
:102FD00087E103980068406B00F480710020B0EB3B
:102FE000112F00F09280FFE7039801684FF4807082
:102FF000886303980168C86B4CF23A329043C86307
:1030000003980168C86A20F00100C8629DF80400B6
:10301000000700283ED5FFE79DF804008007002840
:1030200006D4FFE79DF804008006002812D5FFE7CC
:103030000398006804F0D0FB0290029848B1FFE7C3
:10304000029A0399886B104388630398FFF786FD03
:10305000FFE7FFE70398016840F23A50886303995D
:10306000012081F834000399002008639DF80400D2
:10307000C00730B9FFE79DF804008007002804D599
:10308000FFE7039800F0A6FC03E0039800F0A6FC1D
:10309000FFE739E09DF804000006002832D5FFE77D
:1030A0009DF804008006002812D5FFE70398006809
:1030B00004F092FB0290029848B1FFE7029A03994C
:1030C000886B104388630398FFF748FDFFE7FFE72D
:1030D0009DF80400C007A0B9FFE79DF80400800731
:1030E00000280ED4FFE703980168C86A20F00800A2
:1030F000C8620399012081F83400039800F06EFC47
:10310000FFE700E0FFE7FFE7EAE003980068406BB5
:1031100000F480410020B0EB913F0AD0FFE79DF81A
:1031200004000007002804D5FFE7039805F05EFBC4
:10313000D5E003980068406B40F23A21084200F065
:10314000CC80FFE703980068406B00F0020100208C
:10315000B0EB510F06D0FFE70399886B40F00200F7
:103160008863FFE703980068406B00F008010020C7
:10317000B0EBD10F06D0FFE70399886B40F0080051
:103180008863FFE703980068406B00F0200100208F
:10319000B0EB511F06D0FFE70399886B40F0200089
:1031A0008863FFE703980068406B00F0100100207F
:1031B000B0EB111F06D0FFE70399886B40F01000B9
:1031C0008863FFE703980068406B00F400710020FB
:1031D000B0EB512F06D0FFE70399886B40F0080051
:1031E0008863FFE70398016840F23A7088630398A8
:1031F0000168C86B40F23A329043C8630398006894
:1032000004F0EAFA02460399886B104388639DF83C
:103210000400000700280BD5FFE70399012081F87F
:1032200034000399002008630398FFF797FC53E0EC
:103230009DF80400000600284CD5FFE79DF8040027
:10324000C006002806D4FFE79DF804008006002889
:1032500013D5FFE70398C16B47F66570C0F6000011
:1032600008650398C06BFDF7DFFF28B1FFE70398FF
:10327000C06B04F077FEFFE72BE09DF80400C00769
:1032800030B9FFE79DF804008007002813D5FFE759
:103290000398016C47F6DD60C0F6000008650398EE
:1032A000006CFDF7C1FF28B1FFE70398006C04F044
:1032B00015FEFFE70CE0039900208863039A0121C3
:1032C00082F83410039908630398FFF7C5FAFFE703
:1032D000FFE700E0FFE7FFE700E0FFE7FFE7FFE7CA
:1032E000FFE704B080BD000080B582B00090009878
:1032F00020B9FFE701208DF8070024E0009890F83E
:10330000340038B9FFE7009900200877009800F0F2
:1033100099F8FFE70099032081F83400009800F045
:1033200017F820B1FFE701208DF807000BE00099A6
:103330000020886300990863009A012182F8341004
:103340008DF80700FFE79DF8070002B080BD000080
:10335000B0B58EB00C9000200390059006900790B9
:103360000890099076200A900C9800680599069AB2
:10337000079BDDF820C0099C0A9DEE46CEF8085058
:10338000CEF80440CEF800C003F0BAFF039848F22C
:10339000A001C4F22521049108600C98006803F094
:1033A000DDFF0499012008600220FEF70FFA0C9857
:1033B00004F0A2FF0B900B9860B1FFE70C9901207D
:1033C00081F834000B9B0C9A916B194391638DF833
:1033D000370033E00C9804F0C9FE0B900B9860B1F5
:1033E000FFE70C99012081F834000B9B0C9A916B3C
:1033F000194391638DF8370020E00C9800684FF472
:10340000007104F025F80B900B9898B1FFE70C9829
:10341000016840F2FF50C0F2400088630B9A0C999B
:10342000886B104388630C99012081F834008DF873
:10343000370003E000208DF83700FFE79DF83700E4
:103440000EB0B0BD80B592B01190002010900F90DA
:103450000E900D900C901198006842F60041C4F255
:103460000101884240F0AA80FFE7FFE700200B90AF
:1034700043F64400C4F20200016841F400610160B7
:10348000006800F400600B900B98FFE7FFE7002056
:103490000A9043F63000C4F20200016841F00401D2
:1034A0000160006800F004000A900A98FFE7FFE757
:1034B0000020099043F63000C4F20200016841F098
:1034C00008010160006800F0080009900998FFE712
:1034D0004FF4F8500C90022002900D9000200590BF
:1034E0000E90032007900F900C200390109040F650
:1034F0000000C4F202000CA90491FEF7B5F9DDF852
:1035000008C003980499059B079A4FF0040ECDF864
:1035100018E0CDF830E0CDF834C00E930F92109043
:1035200040F60040C4F20200FEF79EF9059B069AA1
:10353000079942F23400C2F20000089046F2584C5B
:10354000C4F2020CC0F800C04FF0006CC0F804C018
:103550004FF0400CC0F808C0C3604FF480630361B3
:103560004FF4805343614FF4804383612023C36150
:103570004FF400330362426281624FF40001C16282
:103580004FF400110163FEF707F818B1FFE7FDF7EC
:103590004DFAFFE7FFE7119842F23401C2F2000151
:1035A000C16311988863FFE7312001900321002255
:1035B000FEF700FC0198FEF7F3FBFFE712B080BDB9
:1035C00080B594B0DDF858C01290119110920F930D
:1035D000FEF756FB079010980390119802901198EF
:1035E00048B9FFE71299886B40F0006088630120BA
:1035F0008DF84F00EAE1129890F83400012840F06D
:10360000DC81FFE712990020886303980F99084432
:103610001299C96D884209D9FFE71299886B40F069
:103620000070886301208DF84F00CFE112990320CC
:1036300081F83400129801680020C8621298406C2A
:10364000012804D0FFE7039840020390FFE74FF002
:10365000FF3009900F9840020A9090200B900220B2
:103660000C9000200D9001200E901298006809A97E
:1036700003F0FEFD0F9802280AD3FFE712990220FB
:10368000086312980068039903F06AFF089009E044
:1036900012990120086312980068039903F07EFFD5
:1036A0000890FFE70898B0B1FFE71298016840F270
:1036B000FF50C0F240008863089A1299886B10434B
:1036C00088631299012081F83400129A0021116355
:1036D0008DF84F007AE10A980490FFE7129800688D
:1036E000406B40F22A31084266D1FFE71298006829
:1036F000406B000400283CD5FFE70498C8B3FFE7FF
:1037000000200690FFE70698072831D8FFE71298B7
:10371000006803F02BFE0590059802990870029846
:10372000013002900498013804900598000A02992B
:103730000870029801300290049801380490BDF896
:10374000160002990870029801300290049801381E
:1037500004909DF8170002990870029801300290B9
:10376000049801380490FFE7069801300690CAE7F4
:10377000FFE7FEF785FA0799401A1699884203D2A7
:10378000FFE71698B8B9FFE71298016840F2FF50BA
:10379000C0F2400088631299886B40F00040886353
:1037A0001299012081F83400129900200863032047
:1037B0008DF84F000AE191E712980068406BC00550
:1037C000002829D5FFE70F98022825D3FFE7129894
:1037D000406C03281FD0FFE71298006803F0FCFF3D
:1037E00008900898B0B1FFE71298016840F2FF50C6
:1037F000C0F240008863089A1299886B104388636E
:103800001299012081F83400129A002111638DF879
:103810004F00DBE0FFE7FFE712980068406B00070E
:10382000002807D4FFE712980068406B8005002845
:1038300016D5FFE71298016840F2FF50C0F2400031
:1038400088631299886B40F0080088631299012000
:1038500081F83400129A002111638DF84F00B5E011
:1038600012980068406B8007002816D5FFE7129871
:10387000016840F2FF50C0F2400088631299886BE3
:1038800040F0020088631299012081F83400129AF6
:10389000002111638DF84F0098E012980068406B8A
:1038A0008006002816D5FFE71298016840F2FF5005
:1038B000C0F2400088631299886B40F02000886352
:1038C0001299012081F83400129A002111638DF8B9
:1038D0004F007BE0FFE7FFE7FFE7FFE71298006894
:1038E000416B002089020029019006D5FFE704986A
:1038F000002818BF01200190FFE70198C0070028A9
:103900004ED0FFE71298006803F030FD059005984F
:1039100002990870029801300290049801380490CE
:103920000598000A029908700298013002900498E4
:1039300001380490BDF81600029908700298013011
:1039400002900498013804909DF8170002990870BD
:10395000029801300290049801380490FEF790F923
:103960000799401A1699884203D2FFE71698B0B912
:10397000FFE71298016840F2FF50C0F240008863F0
:103980001299886B40F0004088631299012081F8F9
:103990003400129A002111638DF84F0016E09DE764
:1039A0001298016840F23A5088631299012081F818
:1039B000340000208DF84F0008E01299886B40F029
:1039C0000050886301208DF84F00FFE79DF84F00FD
:1039D00014B080BD81B0009001B0704781B00090FC
:1039E0000098006842F21421C2F20001096888427E
:1039F00007D1FFE740F20A01C2F20001012008707E
:103A0000FFE701B07047000080B58EB00C900B91BD
:103A10000A9209930A9801900B9848B9FFE70C990C
:103A2000886B40F00060886301208DF83700D3E098
:103A30000C9890F83400012840F0CA80FFE70C99F8
:103A4000002088630198099908440C99C96D88423F
:103A500009D9FFE70C99886B40F00070886301205A
:103A60008DF83700B8E00C99032081F834000C98E9
:103A700001680020C8620C990A68D16B40F21A23D1
:103A80001943D1630C99CA6B47F64971C0F600011E
:103A9000D1630C99CA6B47F63961C0F60001D16455
:103AA0000C99C96B08650C98406C012804D0FFE79D
:103AB000019840020190FFE7099802280AD3FFE726
:103AC0000C99A02008630C980068019903F0A2FEED
:103AD000029009E00C99902008630C980068019905
:103AE00003F0B6FE0290FFE70298B0B1FFE70C9832
:103AF000016840F2FF50C0F240008863029A0C99BE
:103B0000886B104388630C99012081F834000C9A6B
:103B1000002111638DF837005EE048F28C51C4F249
:103B20002521012008600C98C16B402088600C980A
:103B3000C06B0068006820F0C0000C99CA6B116867
:103B40009268104308600C980268C06B0B99803231
:103B5000DDF824C04FF68073C3F6FF7303EACC137D
:103B6000FDF7D2FDE8B1FFE70C980168C86B40F2A1
:103B70001A229043C8630C98016840F2FF50C0F2CB
:103B8000400088630C99886B40F0804088630C99F2
:103B9000012081F834000C9A002111638DF8370060
:103BA0001AE04FF0FF3003900998400204909020F3
:103BB00005900020009006900790012008900C9836
:103BC000006803A903F054FB00988DF8370003E068
:103BD00002208DF83700FFE79DF837000EB080BD5A
:103BE00081B0009001B0704780B588B00790079809
:103BF00000684068069007980068806805909DF806
:103C0000140000F040010020B0EB911F11D1FFE73C
:103C10000598C00768B1FFE79DF8180000F0400163
:103C20000020B0EB911F04D0FFE70798016C884794
:103C3000F0E09DF8140000F002010020B0EB510FFD
:103C40000BD0FFE79DF818100020B0EBD11F04D077
:103C5000FFE70798416C8847DCE09DF8140000F00E
:103C600020010020B0EB511F10D1FFE79DF8140098
:103C700000F040010020B0EB911F07D1FFE79DF855
:103C80001500C007002800F0C580FFE79DF8180068
:103C900000F020010020B0EB511F00F0BB80FFE7D7
:103CA0009DF8140000F040010020B0EB911F28D0D7
:103CB000FFE7079890F85100032813D0FFE7079912
:103CC000486D40F004004865FFE700200490079825
:103CD0000068C068049007980068806804900498A1
:103CE000FFE70DE0FFE70020039007980068C06839
:103CF000039007980068806803900398FFE789E0C5
:103D0000FFE79DF8140000F020010020B0EB511FE8
:103D100015D0FFE70799486D40F001004865FFE7BF
:103D20000020029007980068806802900798016858
:103D3000086820F0400008600298FFE7FFE79DF860
:103D40001500C00778B1FFE70799486D40F00800FB
:103D50004865FFE70020019007980068806801909F
:103D60000198FFE7FFE70798406D002851D0FFE773
:103D700007980168486820F0E00048600799012032
:103D800081F85100069800F00200022805D0FFE7F4
:103D90009DF81800C007B8B3FFE7079801684868A6
:103DA00020F0030048600798C06CA0B1FFE70798B7
:103DB000C16C48F6A500C0F6000008650798C06C05
:103DC000FDF732FA30B1FFE70799486D40F0400047
:103DD0004865FFE7FFE70798806CA0B1FFE7079809
:103DE000816C48F6A500C0F6000008650798806C55
:103DF000FDF71AFA30B1FFE70799486D40F040002F
:103E00004865FFE7FFE703E00798FFF7E9FEFFE7F4
:103E1000FFE7FFE708B080BD80B584B0029002984C
:103E200020B9FFE701208DF80F0071E00298406A89
:103E300060B9FFE702984068B0F5827F01D1FFE7E3
:103E400003E002990020C861FFE705E00299002025
:103E5000086102994861FFE7029900208862029890
:103E600090F8510040B9FFE70299002081F8500016
:103E7000029800F051F8FFE70299022081F8510002
:103E800002980168086820F040000860029A0192D8
:103E900011685068D2F808C0D36800F482700CF43E
:103EA000044C604403F400631844136903F00203F4
:103EB0001844536903F001031844936903F4007331
:103EC0001844D36903F038031844136A03F08003DD
:103ED0001843926A02F4005210430860029A508B11
:103EE00000F004001168526A02F0100210444860A9
:103EF00002980168C86920F40060C8610299002036
:103F00004865029A012182F851108DF80F00FFE7F1
:103F10009DF80F0004B080BD80B58EB00D900020DC
:103F20000C900B900A90099008900D98006843F24D
:103F30000001C4F20101884233D1FFE7FFE700200E
:103F4000079043F64400C4F20200016841F4805136
:103F50000160006800F4805007900798FFE7FFE7D2
:103F60000020069043F63000C4F20200016841F0E0
:103F700001010160006800F0010006900698FFE76B
:103F8000E02008900220099000200A9003200B9066
:103F900005200C900020C4F2020008A9FDF764FC83
:103FA00072E00D98006843F60001C4F200018842F7
:103FB00069D1FFE7FFE70020059043F64000C4F217
:103FC0000200016841F480410160006800F4804013
:103FD00005900598FFE7FFE70020049043F63000C6
:103FE000C4F20200016841F002010160006800F0C3
:103FF000020004900498FFE74FF46040089002200C
:104000000990002002900A9003200B9005200C904C
:1040100040F20040C4F2020008A9FDF725FC029915
:1040200042F29400C2F20000039046F27002C4F221
:1040300002020260416040228260C1604FF48062EF
:10404000026141618161C1614FF4003202624162EB
:10405000FDF7A2FA18B1FFE7FCF7E8FCFFE7FFE77E
:104060000D9842F29401C2F2000181640D988863B8
:10407000FFE72420019001210022FDF79BFE01981B
:10408000FDF78EFEFFE7FFE70EB080BD80B58CB078
:10409000DDF838C00A9009910892ADF81E30012071
:1040A0000390FDF7EDFD04900A9890F851008DF80B
:1040B00017000A9840680690BDF81E00ADF81C0075
:1040C0009DF81700012812D0FFE70698B0F5827F0F
:1040D00009D1FFE70A98806828B9FFE79DF8170023
:1040E000042804D0FFE702208DF82F009BE10998F7
:1040F00038B1FFE7089820B1FFE7BDF81E0020B9EE
:10410000FFE701208DF82F008DE1FFE70A9890F876
:104110005000012804D1FFE702208DF82F0082E132
:104120000A99012081F85000FFE7FFE70A9890F80C
:104130005100042805D0FFE70A99052081F85100B5
:10414000FFE70A990020486508990A9A9163BDF82B
:104150001E100A9AD187BDF81E100A9A91870999F4
:104160000A9A1163BDF81E100A9AD186BDF81E1076
:104170000A9A91860A9908640A9948640A9800681C
:10418000006800F04000402807D0FFE70A98016867
:10419000086840F040000860FFE70A98C068B0F582
:1041A000006F40F08180FFE70A98406828B1FFE780
:1041B000BDF81C0001280ED1FFE70A980168006BCA
:1041C0000088C8600A99086B023008630A99C88E93
:1041D0000138C886FFE7FFE70A98C18E01200190E9
:1041E00039B9FFE70A98C08F002818BF0120019055
:1041F000FFE70198C007002855D0FFE70A9800683C
:1042000080688007002818D5FFE70A98C08EA0B103
:10421000FFE70398012810D1FFE70A980168006BB7
:104220000088C8600A99086B023008630A99C88E32
:104230000138C88600200390FFE70A98006880686C
:10424000C007A8B1FFE70A98C08F88B1FFE70A98B6
:104250000068C0680A99896B08800A99886B0230E7
:1042600088630A99C88F0138C88701200390FFE747
:10427000FDF706FD0499401A0E99884212D3FFE714
:104280000E98013070B1FFE70A99012081F85100C2
:10429000FFE70A99002081F85000FFE703208DF81E
:1042A0002F00C0E098E782E00A98406828B1FFE755
:1042B000BDF81C0001280ED1FFE70A980168006BC9
:1042C000007808730A99086B013008630A99C88E50
:1042D0000138C886FFE7FFE70A98C18E01200090E9
:1042E00039B9FFE70A98C08F002818BF0120009055
:1042F000FFE70098C007002858D0FFE70A98006839
:1043000080688007002818D5FFE70A98C08EA0B102
:10431000FFE70398012810D1FFE70A980168006BB6
:10432000007808730A99086B013008630A99C88EEF
:104330000138C88600200390FFE70A98006880686B
:10434000C007A8B1FFE70A98C08F88B1FFE70A98B5
:104350000068C0680A99896B08700A99886B0130F7
:1043600088630A99C88F0138C88701200390FFE746
:10437000FDF786FC0499401A0E99884204D3FFE7A2
:104380000E98013018B9FFE70E9870B9FFE70A9947
:10439000012081F85100FFE70A99002081F85000C0
:1043A000FFE703208DF82F003DE095E7FFE70A982F
:1043B0000E99049A04F000FB68B1FFE70A992020E7
:1043C0004865FFE70A99002081F85000FFE70120C7
:1043D0008DF82F0027E00A98806870B9FFE7FFE7A3
:1043E000002002900A980068C06802900A9800684D
:1043F000806802900298FFE7FFE70A99012081F8A0
:104400005100FFE70A99002081F85000FFE70A9861
:10441000406D20B1FFE701208DF82F0003E0002060
:104420008DF82F00FFE79DF82F000CB080BD000035
:1044300080B584B002900191ADF80220029890F806
:104440005100012804D0FFE702208DF80F00A1E001
:10445000019820B1FFE7BDF8020020B9FFE7012075
:104460008DF80F0096E0FFE7029890F850000128C1
:1044700004D1FFE702208DF80F008BE002990120A4
:1044800081F85000FFE7FFE70299032081F851000F
:104490000299002048650199029A1163BDF8021043
:1044A000029A9186BDF80210029AD1860299886319
:1044B0000299486402990864029988870299C8871A
:1044C00002988068B0F5004F0DD1FFE702980168AF
:1044D000086820F04000086002980168086840F40D
:1044E00080400860FFE70298816C48F6F900C0F64A
:1044F000000008640298816C48F61110C0F60000B4
:10450000C8630298816C48F6C500C0F60000C86414
:104510000298816C00200865029B1A68196B986CE0
:104520000C32DB8EFDF7F0F878B1FFE70299486DA9
:1045300040F010004865FFE70299002081F8500024
:10454000FFE701208DF80F0024E002980068006862
:1045500000F04000402807D0FFE702980168086893
:1045600040F040000860FFE7FFE70299002081F873
:104570005000FFE702980168486840F0200048605A
:1045800002980168486840F00200486000208DF8F9
:104590000F00FFE79DF80F0004B080BD80B582B02A
:1045A00001900198006842F2F021C2F2000109680E
:1045B00088420FD1FFE740F20B00C2F20000012257
:1045C000027040F20040C4F202004FF48051FDF747
:1045D0003FFBFFE702B080BD81B0009001B07047A3
:1045E00080B582B00190019804F088FB02B080BDD4
:1045F00081B0009001B0704781B0009001B0704769
:1046000084B00290019100200090FFE7029890F89A
:104610003C00012804D1FFE702208DF80F0044E0A0
:104620000299012081F83C00FFE7FFE7009820F0A5
:10463000FF000199C96808430090009820F4407079
:104640000199896808430090009820F480600199DE
:10465000496808430090009820F4006001990968B7
:1046600008430090009820F480500199096908439C
:104670000090009820F40050019949690843009087
:10468000009820F480400199C9690843009000987F
:10469000029909684864FFE70299002081F83C000C
:1046A000FFE700208DF80F00FFE79DF80F0004B032
:1046B0007047000085B003900291FFE7039890F8DF
:1046C0003C00012804D1FFE702208DF813007EE0B2
:1046D0000399012081F83C00FFE7FFE703990220DE
:1046E00081F83D00039800684068019003980068D5
:1046F00080680090019820F0700001900298016895
:10470000019808430190019803990968486003984B
:1047100000680021C4F2010188423CD0FFE7039801
:104720000068B0F1804F36D0FFE70398006840F290
:104730000041C4F2000188422DD0FFE703980068D1
:1047400040F60001C4F20001884224D0FFE703983C
:10475000006840F60041C4F2000188421BD0FFE728
:104760000398006840F20041C4F20101884212D06F
:10477000FFE70398006844F20001C4F20101884297
:1047800009D0FFE70398006841F60001C4F2000178
:1047900088420ED1FFE7009820F080000090029838
:1047A0004168009808430090009803990968886060
:1047B000FFE70399012081F83D00FFE703990020FE
:1047C00081F83C00FFE700208DF81300FFE79DF81B
:1047D000130005B07047000080B582B000900098CB
:1047E00020B9FFE701208DF807003FE0009890F81E
:1047F0003D0040B9FFE70099002081F83C00009897
:1048000000F038F8FFE70099022081F83D00009998
:1048100051F8040B04F020FB0099012081F84600B8
:10482000FFE70099012081F83E00009981F83F00E0
:10483000009981F84000009981F84100FFE7FFE707
:104840000099012081F84200009981F84300009905
:1048500081F84400009981F84500FFE700990120A4
:1048600081F83D0000208DF80700FFE79DF8070064
:1048700002B080BD80B590B00F9000200E900D90DA
:104880000C900B900A900F9800680021C4F201016F
:10489000884212D1FFE7FFE70020099043F6440069
:1048A000C4F20200016841F001010160006800F0FB
:1048B000010009900998FFE78CE00F980068B0F1BB
:1048C000804F1BD1FFE7FFE70020089043F6400030
:1048D000C4F20200016841F001010160006800F0CB
:1048E000010008900898FFE71C2004900421002292
:1048F000FDF760FA0498FDF753FA6AE00F98006834
:1049000040F60001C4F2000188423CD1FFE7FFE716
:104910000020079043F64000C4F20200016841F015
:1049200004010160006800F0040007900798FFE7A9
:10493000FFE70020069043F63000C4F20200016851
:1049400041F002010160006800F002000690069844
:10495000FFE780200A9002200B90002102910C9129
:104960000D910E9040F20040C4F202000AA9FCF73B
:104970007BFF029A1E2003900521FDF71BFA039886
:10498000FDF70EFA24E00F98006841F20001C4F22E
:10499000000188421BD1FFE7FFE70020059043F6A6
:1049A0004000C4F20200016841F01001016000689B
:1049B00000F0100005900598FFE7362001900621D1
:1049C0000022FDF7F7F90198FDF7EAF9FFE7FFE7A5
:1049D000FFE7FFE710B080BD83B00190019890F829
:1049E0003D00012804D0FFE701208DF80B006AE0AC
:1049F0000199022081F83D0001980168C86840F0E3
:104A00000100C860019800680021C4F201018842D9
:104A10003CD0FFE701980068B0F1804F36D0FFE747
:104A20000198006840F20041C4F2000188422DD094
:104A3000FFE70198006840F60001C4F200018842D7
:104A400024D0FFE70198006840F60041C4F200015D
:104A500088421BD0FFE70198006840F20041C4F291
:104A60000101884212D0FFE70198006844F200017A
:104A7000C4F20101884209D0FFE70198006841F6BD
:104A80000001C4F20001884212D1FFE701980068DA
:104A9000806800F0070000900098062807D0FFE724
:104AA00001980168086840F001000860FFE706E02F
:104AB00001980168086840F001000860FFE70020E5
:104AC0008DF80B00FFE79DF80B0003B07047000066
:104AD00081B0009000980168C86820F00100C860AB
:104AE000FFE700980068006A41F21111084210D1F6
:104AF000FFE700980068006A40F24441084207D18D
:104B0000FFE700980168086820F001000860FFE7EF
:104B1000FFE7FFE70099012081F83D00002001B088
:104B20007047000080B586B00490039100208DF896
:104B30000B00FFE7049890F83C00012804D1FFE740
:104B400002208DF81700ABE00499012081F83C00A9
:104B5000FFE7FFE70499022081F83D000498006810
:104B600080680190019820F077000190019820F46E
:104B70007F40019001980499096888600398006853
:104B80000090002872D0FFE7009810286ED0FFE751
:104B9000009820286AD0FFE70098302866D0FFE709
:104BA0000098402855D0FFE70098502837D0FFE7FD
:104BB0000098602840D0FFE7009870280BD0FFE7EE
:104BC0000098B0F5805F05D0FFE70098B0F5005F72
:104BD00016D052E055E004980068039B5A68996823
:104BE000DB6804F027FA0498006880680190019857
:104BF00040F077000190019804990968886040E0CE
:104C000004980068039B5A689968DB6804F012FAFC
:104C100004980168886840F48040886031E0049816
:104C20000068039A5168D26804F084FC0498006814
:104C3000502104F019FA24E004980068039A51689E
:104C4000D26804F02BFD04980068602104F00CFA8F
:104C500017E004980068039A5168D26804F06AFC6F
:104C600004980068402104F0FFF90AE00498006805
:104C70000399096804F0F8F903E001208DF80B00AE
:104C8000FFE70499012081F83D00FFE70499002027
:104C900081F83C00FFE79DF80B008DF81700FFE757
:104CA0009DF8170006B080BD81B00090009841F6D5
:104CB0002051C2F200018968884247D1FFE741F6DE
:104CC0002050C2F20000D0F8BC0000BBFFE741F664
:104CD0001F51C2F2000101200870FFE741F6205089
:104CE000C2F2000081680A68116A21F0A001116215
:104CF00080680168086A40F020000862FFE741F61A
:104D00002051C2F200010220C1F8BC001DE041F6B2
:104D10001F51C2F2000102200870FFE741F6205047
:104D2000C2F2000081680A68116A21F0A0011162D4
:104D300080680168086A0862FFE741F62051C2F204
:104D400000010020C1F8BC00FFE7FFE701B0704799
:104D500080B586B004900391029200208DF8070080
:104D6000FFE7049890F83C00012804D1FFE70220F7
:104D70008DF8170080E00499012081F83C00FFE7DE
:104D8000FFE70298B0B9FFE704980068039B196831
:104D90005A68DB6804F0F6FB04980168886920F023
:104DA0000C00886103988268049801688869104340
:104DB000886156E00298042817D1FFE7049800683C
:104DC000039B19685A68DB6804F092FC0498016838
:104DD000886920F4406088610398826804980168BB
:104DE000886940EA022088613AE00298082816D1D2
:104DF000FFE704980068039B19685A68DB6804F0B1
:104E0000ADFC04980168C86920F00C00C8610398E3
:104E1000826804980168C8691043C8611FE002985D
:104E20000C2817D1FFE704980068039B19685A689B
:104E3000DB6804F0C9FC04980168C86920F440608C
:104E4000C8610398826804980168C86940EA022032
:104E5000C86103E001208DF80700FFE7FFE7FFE7E7
:104E6000FFE7FFE70499002081F83C00FFE79DF889
:104E700007008DF81700FFE79DF8170006B080BD0A
:104E800080B582B00090009820B9FFE701208DF82E
:104E900007003FE0009890F83D0040B9FFE7009917
:104EA000002081F83C00009800F038F8FFE70099F6
:104EB000022081F83D00009951F8040B03F0CCFF6B
:104EC0000099012081F84600FFE70099012081F850
:104ED0003E00009981F83F00009981F84000009958
:104EE00081F84100FFE7FFE70099012081F84200C7
:104EF000009981F84300009981F84400009981F8F5
:104F00004500FFE70099012081F83D0000208DF861
:104F10000700FFE79DF8070002B080BD81B0009058
:104F200001B0704780B592B010900F9100208DF8BD
:104F30003B000F9828B9FFE7109890F83E000B90BF
:104F40001CE00F98042805D1FFE7109890F83F0067
:104F50000A9010E00F98082805D1FFE7109890F804
:104F60004000099004E0109890F841000990FFE794
:104F700009980A90FFE70A980B90FFE70B988DF8C5
:104F800033000F9828B9FFE7109890F84200089076
:104F90001CE00F98042805D1FFE7109890F8430013
:104FA000079010E00F98082805D1FFE7109890F8B7
:104FB0004400069004E0109890F845000690FFE742
:104FC00006980790FFE707980890FFE708988DF884
:104FD00032009DF83300012805D1FFE79DF832002B
:104FE000012804D0FFE701208DF84700E9E00F9881
:104FF00028B9FFE71099022081F83E001EE00F98C3
:10500000042806D1FFE71099022081F83F0005909F
:1050100012E00F98082806D1FFE71099022081F8C6
:105020004000049005E01099022081F841000490AE
:10503000FFE704980590FFE70598FFE70F9828B968
:10504000FFE71099022081F842001EE00F98042823
:1050500006D1FFE71099022081F84300039012E087
:105060000F98082806D1FFE71099022081F8440024
:10507000029005E01099022081F845000290FFE7B8
:1050800002980390FFE70398FFE70F9801900C2820
:1050900025D80199DFE801F0072323230E232323DA
:1050A000152323231C0010980168C86840F00200F3
:1050B000C86018E010980168C86840F00400C86033
:1050C00011E010980168C86840F00800C8600AE064
:1050D00010980168C86840F01000C86003E0012023
:1050E0008DF83B00FFE79DF83B00002864D1FFE707
:1050F000109800680F99012203F080FF1098006853
:105100000021C4F2010188423CD0FFE710980068FA
:10511000B0F1804F36D0FFE71098006840F20041B0
:10512000C4F2000188422DD0FFE71098006840F6D5
:105130000001C4F20001884224D0FFE71098006803
:1051400040F60041C4F2000188421BD0FFE71098EE
:10515000006840F20041C4F20101884212D0FFE72A
:105160001098006844F20001C4F20101884209D09D
:10517000FFE71098006841F60001C4F20001884280
:1051800012D1FFE710980068806800F007000D90CA
:105190000D98062807D0FFE710980168086840F0CE
:1051A00001000860FFE706E010980168086840F019
:1051B00001000860FFE7FFE79DF83B008DF847001E
:1051C000FFE79DF8470012B080BD000080B588B0B1
:1051D0000790069100208DF81700069804900C287F
:1051E00025D80499DFE801F0072323230E23232386
:1051F000152323231C0007980168C86820F00200CB
:10520000C86018E007980168C86820F00400C8600A
:1052100011E007980168C86820F00800C8600AE03B
:1052200007980168C86820F01000C86003E00120FA
:105230008DF81700FFE79DF8170000286FD1FFE7F2
:10524000079800680699002203F0D8FEFFE7079848
:105250000068006A41F21111084210D1FFE7079877
:105260000068006A40F24441084207D1FFE707980E
:105270000168086820F001000860FFE7FFE7FFE72A
:10528000069828B9FFE70799012081F83E001EE043
:105290000698042806D1FFE70799012081F83F000E
:1052A000039012E00698082806D1FFE7079901202D
:1052B00081F84000029005E00799012081F8410043
:1052C0000290FFE702980390FFE70398FFE7069834
:1052D00028B9FFE70799012081F842001EE00698EF
:1052E000042806D1FFE70799012081F843000190C7
:1052F00012E00698082806D1FFE70799012081F8F7
:105300004400009005E00799012081F845000090D5
:10531000FFE700980190FFE70198FFE7FFE79DF89E
:10532000170008B080BD000080B584B003900398DA
:105330000068C068029003980068006901909DF8B9
:1053400004008007002824D5FFE79DF808008007A7
:1053500000281DD5FFE7039801686FF0020008617F
:10536000039901200877039800688069800720B1BD
:10537000FFE70398FFF798FC06E0039800F044F974
:10538000039800F039FAFFE7039900200877FFE758
:10539000FFE79DF804004007002825D5FFE79DF8AA
:1053A0000800400700281ED5FFE7039801686FF04A
:1053B0000400086103990220087703980068806957
:1053C00010F4407F04D0FFE70398FFF76DFC06E080
:1053D000039800F019F9039800F00EFAFFE703991B
:1053E00000200877FFE7FFE79DF80400000700288A
:1053F00024D5FFE79DF80800000700281DD5FFE72A
:10540000039801686FF00800086103990420087789
:1054100003980068C069800720B1FFE70398FFF791
:1054200043FC06E0039800F0EFF8039800F0E4F97D
:10543000FFE7039900200877FFE7FFE79DF80400E6
:10544000C006002825D5FFE79DF80800C006002803
:105450001ED5FFE7039801686FF0100008610399FB
:105460000820087703980068C06910F4407F04D0D2
:10547000FFE70398FFF718FC06E0039800F0C4F874
:10548000039800F0B9F9FFE7039900200877FFE7D8
:10549000FFE79DF80400C00778B1FFE79DF808001A
:1054A000C00748B1FFE7039801686FF00100086189
:1054B000039800F00FFBFFE7FFE79DF804000006EC
:1054C000002810D5FFE79DF808000006002809D540
:1054D000FFE7039801686FF0800008610398FFF709
:1054E00087F8FFE7FFE79DF804004006002810D585
:1054F000FFE79DF808004006002809D5FFE703985C
:1055000001686FF040000861039800F07BFBFFE743
:10551000FFE79DF804008006002810D5FFE79DF8FE
:1055200008008006002809D5FFE7039801686FF09E
:10553000200008610398FFF75FF8FFE7FFE704B07A
:1055400080BD000080B588B00790002006900590CF
:10555000049003900290079800680021C4F20101B2
:10556000884223D1FFE7FFE70020019043F6300097
:10557000C4F20200016841F010010160006800F00F
:10558000100001900198FFE74FF400700290022094
:1055900003900020049005900120069041F2000045
:1055A000C4F2020002A9FCF75FF92AE0079800683C
:1055B00040F60001C4F20001884221D1FFE7FFE775
:1055C0000020009043F63000C4F20200016841F070
:1055D00002010160006800F0020000900098FFE7FF
:1055E0004020029002200390002104910591069032
:1055F00040F20040C4F2020002A9FCF735F9FFE7CF
:10560000FFE708B080BD000081B0009001B0704796
:1056100080B586B004900391029200208DF80700B7
:10562000FFE7049890F83C00012804D1FFE702202E
:105630008DF8170089E00499012081F83C00FFE70C
:10564000FFE7029800900C2800F270800099DFE8D4
:1056500001F0076D6D6D206D6D6D3A6D6D6D5300D0
:1056600004980068039903F015FD0498016888699F
:1056700040F00800886104980168886920F00400FF
:1056800088610398026904980168886910438861F9
:1056900050E004980068039903F072FD04980168D3
:1056A000886940F40060886104980168886920F482
:1056B000806088610398026904980168886940EAFB
:1056C0000220886136E004980068039903F0D2FD57
:1056D00004980168C86940F00800C861049801682E
:1056E000C86920F00400C861039802690498016841
:1056F000C8691043C8611DE004980068039903F06D
:1057000033FE04980168C86940F40060C8610498D9
:105710000168C86920F48060C86103980269049830
:105720000168C86940EA0220C86103E001208DF8E1
:105730000700FFE7FFE70499002081F83C00FFE73E
:105740009DF807008DF81700FFE79DF8170006B0D9
:1057500080BD000080B582B00090009820B9FFE7BE
:1057600001208DF807003FE0009890F83D0040B917
:10577000FFE70099002081F83C00009800F038F81D
:10578000FFE70099022081F83D00009951F8040BD1
:1057900003F062FB0099012081F84600FFE70099C1
:1057A000012081F83E00009981F83F00009981F8BE
:1057B0004000009981F84100FFE7FFE700990120D0
:1057C00081F84200009981F84300009981F8440073
:1057D000009981F84500FFE70099012081F83D001C
:1057E00000208DF80700FFE79DF8070002B080BD9C
:1057F00081B0009001B0704781B0009001B0704757
:1058000080B58CB00A900991099828B9FFE70A98E9
:1058100090F83E0007901CE00998042805D1FFE7A6
:105820000A9890F83F00069010E00998082805D1E2
:10583000FFE70A9890F84000059004E00A9890F875
:1058400041000590FFE705980690FFE7069807904E
:10585000FFE70798012804D0FFE701208DF82F000B
:10586000AFE0099828B9FFE70A99022081F83E00C5
:105870001EE00998042806D1FFE70A99022081F862
:105880003F00049012E00998082806D1FFE70A9922
:10589000022081F84000039005E00A99022081F877
:1058A00041000390FFE703980490FFE70498FFE7A7
:1058B0000A98006809990122019203F09FFB019860
:1058C0000A9909680022C4F20102914202900CD0A8
:1058D000FFE70A9800684FF60041CBF6FE710844D6
:1058E000B0FA80F040090290FFE70298C00738B193
:1058F000FFE70A980168486C40F400404864FFE7FD
:105900000A9800680021C4F2010188423CD0FFE7F8
:105910000A980068B0F1804F36D0FFE70A98006817
:1059200040F20041C4F2000188422DD0FFE70A98FE
:10593000006840F60001C4F20001884224D0FFE76D
:105940000A98006840F60041C4F2000188421BD06A
:10595000FFE70A98006840F20041C4F20101884262
:1059600012D0FFE70A98006844F20001C4F2010176
:10597000884209D0FFE70A98006841F60001C4F2A6
:105980000001884212D1FFE70A980068806800F0A1
:10599000070008900898062807D0FFE70A980168D2
:1059A000086840F001000860FFE706E00A98016817
:1059B000086840F001000860FFE700208DF82F0024
:1059C000FFE79DF82F000CB080BD000080B586B0C9
:1059D00005900491059800680499002203F00EFBDD
:1059E0000598016801200022C4F20102914203904F
:1059F0000CD0FFE7059800684FF60041CBF6FE712A
:105A00000844B0FA80F040090390FFE70398C0070C
:105A1000D8B1FFE7FFE705980068006A41F211116D
:105A2000084210D1FFE705980068006A40F244413F
:105A3000084207D1FFE705980168486C20F4004050
:105A40004864FFE7FFE7FFE7FFE7FFE70598006827
:105A5000006A41F21111084210D1FFE70598006871
:105A6000006A40F24441084207D1FFE70598016807
:105A7000086820F001000860FFE7FFE7FFE70498EF
:105A800028B9FFE70599012081F83E001EE004983F
:105A9000042806D1FFE70599012081F83F00029014
:105AA00012E00498082806D1FFE70599012081F843
:105AB0004000019005E00599012081F84100019026
:105AC000FFE701980290FFE70298FFE7002006B089
:105AD00080BD000080B584B00390039842F220415D
